:020000040800F2
:1000000030B4002079020008B7260008AF260008A7
:10001000B3260008710800086929000800000000E4
:10002000000000000000000000000000E1010008E6
:10003000750800080000000025020008E1260008FD
:10004000930200089302000893020008930200083C
:10005000930200089302000893020008930200082C
:10006000930200089302000893020008930200081C
:10007000930200089302000893020008930200080C
:1000800093020008930200089302000893020008FC
:1000900093020008930200089302000893020008EC
:1000A00093020008930200089302000893020008DC
:1000B00093020008930200089302000893020008CC
:1000C00093020008930200089302000893020008BC
:1000D00093020008592900089302000893020008BF
:1000E000930200089302000893020008930200089C
:1000F000930200089302000893020008930200088C
:10010000930200089302000893020008930200087B
:100110009302000893020008F926000893020008E1
:10012000930200089302000893020008930200085B
:1001300000F002F800F045F80AA090E8000C8244B4
:100140008344AAF10107DA4501D100F03AF8AFF291
:10015000090EBAE80F0013F0010F18BFFB1A43F0A5
:1001600001031847B8BF0000D8BF0000103A24BFF1
:1001700078C878C1FAD8520724BF30C830C144BF0C
:1001800004680C607047000000230024002500264E
:10019000103A28BF78C1FBD8520728BF30C148BFEA
:1001A0000B607047642900F0F380782900F02C81FF
:1001B000732900F05182002070471FB51FBD10B594
:1001C00010BD00F0B7FA1146FFF7F7FF06F070F91F
:1001D00000F0D5FA03B4FFF7F2FF03BC02F0E2FB34
:1001E000224B19680868B0E8F00F80F30988BFF364
:1001F0006F8F4FF0000080F311884EF00D0E7047A6
:100200000000000006480068006880F3088862B6B5
:1002100061B6BFF34F8FBFF36F8F00DF00BF00BF2A
:1002200008ED00E0EFF30980BFF36F8F0F4B1A6802
:1002300020E9F00F106008B54FF0500080F31188EE
:10024000BFF34F8FBFF36F8F07F0BEFF4FF000007B
:1002500080F31188BDE8084019680868B0E8F00F1D
:1002600080F30988BFF36F8F704700BF58000020EC
:10027000EFF30580704700000948804709480047B0
:10028000FEE7FEE7FEE7FEE7FEE7FEE7FEE7FEE746
:10029000FEE7FEE704480549054A064B70470000A3
:1002A000F52600083101000830AE002030B40020EF
:1002B00030B0002030B00020704700000FB4044977
:1002C00010B503AA029800F0CBF910BC5DF814FB3E
:1002D0001C0000202DE9F0410E460446002020625B
:1002E0002046E168884730B3252805D0D4E90121AC
:1002F0009047206A401CF2E7E168204600278847C3
:10030000050018D0A5F14100192802D820354FF476
:1003100000673246294620462760FFF743FF40B179
:10032000012804D0F61D26F007060836D8E7361D4A
:10033000D6E72846DAE7206ABDE8F08170B50C46BA
:100340000546012A05D02878800600D5EA690023F1
:1003500002E0012305E05B1C934202D2E05C00282E
:10036000F9D1A869E618C01AA861286A1844286259
:100370002846AFF3008004E0D5E9012114F8010B11
:100380009047B442F8D32846AFF3008070BD000018
:100390002DE9F0410646002410687529314616A55E
:1003A00010D0AFF30080002802DA404213A507E026
:1003B00031688A0701D512A502E0490704D511A5C5
:1003C000012401E0AFF3008000210A2206F1240796
:1003D00009E0B0FBF2FCB0FBF2F302FB1C00303092
:1003E00078541846491C0028F3D123462A46304643
:1003F000BDE8F04100F0ACB8000000002D000000A6
:100400002B0000002000000070B504460D46214678
:100410001068AFF300802188090502D50F4A7A449D
:1004200002E00E4A7A440E32002104F1240305E072
:1004300000F00F060009965D5E54491C0028F7D1B4
:1004400020780023000704D5702D02D009B10223C3
:1004500011322046BDE8704000F07AB8D2BC0000EE
:10046000032A40F2308010F0030C00F0158011F8E0
:10047000013BBCF1020F624498BF11F801CB00F8B8
:10048000013B38BF11F8013BA2F1040298BF00F80C
:1004900001CB38BF00F8013B11F0030300F0F280FC
:1004A000083AC0F0088051F8043B083A51F804CBF0
:1004B000A0E80810F5E7121D5CBF51F8043B40F8B6
:1004C000043BAFF30080D20724BF11F8013B11F8C1
:1004D00001CB48BF11F8012B24BF00F8013B00F805
:1004E00001CB48BF00F8012B704702F0FF0343EA3D
:1004F000032242EA024200F0F9B84FF0000200B5D0
:10050000134694469646203922BFA0E80C50A0E836
:100510000C50B1F12001BFF4F7AF090728BFA0E8E4
:100520000C5048BF0CC05DF804EB890028BF40F8B0
:10053000042B08BF704748BF20F8022B11F0804FF2
:1005400018BF00F8012B704770477047704770471D
:100550002DE9F0470D4699469246044600F12408DD
:100560000168880604D5E06921F01001216000E0EF
:100570000120A84201DD471B00E00027A1697A198C
:1005800002EB0900081AA0612078C00602D42046B8
:10059000AFF30080002608E0D4E901211AF8060034
:1005A0009047206A401C761C20624E45F4DB207880
:1005B000C0060AD52046AFF3008006E0D4E9012149
:1005C00030209047206A401C2062381EA7F10107A6
:1005D000F4DC07E0D4E9012118F805009047206A0F
:1005E000401C2062281EA5F10105F3DC2046AFF374
:1005F00000802078000602D50220BDE8F0870120A7
:10060000FBE7000001694A1C02610878704700B5E9
:100610008FB0CDE901310021059105497944CDE93B
:10062000031011466846FFF755FE0FB000BD0000ED
:10063000E5FFFFFF10B5436913B1AFF3008001E0A0
:10064000FFF77CFE012010BD127800F124010A7032
:1006500000224A700122EDE711684FF0FF32E9E70E
:10066000074B70B50D467B44FFF7D1FF0446284683
:1006700000F05CF810B14FF0FF3070BD204670BD47
:100680005B24000010B5203AC0F00B80B1E8185090
:10069000203AA0E81850B1E81850A0E81850BFF46C
:1006A000F5AF5FEA027C24BFB1E81850A0E818500B
:1006B00044BF18C918C0BDE810405FEA827C24BF5F
:1006C00051F8043B40F8043B08BF7047D20728BFED
:1006D00031F8023B48BF11F8012B28BF20F8023B3C
:1006E00048BF00F8012B70474FF000020429C0F00A
:1006F000128010F0030C3FF402AFCCF1040CBCF1FB
:10070000020F18BF00F8012BA8BF20F8022BA1EBA5
:100710000C01FFF7F4BE5FEAC17C24BF00F8012B97
:1007200000F8012B48BF00F8012B7047007B00F058
:1007300080007047754600F02BF8AE46050069460C
:10074000534620F00700854618B020B5FFF7A2FDFC
:10075000BDE820404FF000064FF000074FF00008C2
:100760004FF0000B21F00701AC46ACE8C009ACE843
:10077000C009ACE8C009ACE8C0098D46704710B5A7
:100780000446AFF300802046BDE81040FFF722BDCD
:1007900000487047CCAD002070B5044600252068A5
:1007A000806800F00100F0B12068806820F001004E
:1007B0002168886000F0E0FE05460EE000F0DCFEF7
:1007C000401B022809D9A06A40F01000A062E06A2C
:1007D00040F00100E062012070BD2068806800F0F8
:1007E00001000028EAD10020F6E7000038B50446F1
:1007F0000025002000902068806800F0010080BB88
:100800002068806840F00100216888601648006810
:100810001649B0FBF1F0009002E00098401E0090F5
:1008200000980028F9D100F0A7FE054613E000F07B
:10083000A3FE401B02280ED9A06A40F01000A0625F
:10084000E06A40F00100E06200BF002084F824006C
:1008500000BF012038BD2068806800F0010000283A
:10086000E5D00020F6E700000000002040420F0025
:1008700000BFFEE77047000070B50446B3F5804F37
:1008800013D1D1E9000540EA05108D6840EA052042
:100890008D6928438D8940EA054054F82250064E60
:1008A0003540284344F8220003E06FF0704044F8DC
:1008B0002200002070BD00000000F0CF70B502469D
:1008C000086852F8200020F001000E6842F8260067
:1008D0008868082801D1402300E0002348681843B5
:1008E0008E683043CE6830430E6930434E693043E2
:1008F000CE6930430E6A30434E6A30438E6A3043CD
:10090000CE6A30430E6B40EA060488690443486BA4
:100910000443074D45F4806545F4E025086852F826
:100920002000A84320430E6842F82600002070BD36
:100930007FFB080010B50346D1E9000440EA04102B
:100940008C6840EA04208C8940EA0444088A401EEE
:1009500044EA0054087D801E44EA00608C6920430C
:10096000541C53F8244004F040442043541C43F8E2
:100970002400002010BD0000F8B504460026002029
:10098000009000BF94F82400012801D10220F8BD96
:10099000012084F8240000BF2046FFF7FDFE064634
:1009A000002E62D1A06A20F4885040F00200A062BC
:1009B000022000F091FE30490968B1FBF0F04000E0
:1009C000009002E00098401E009000980028F9D1A5
:1009D0002046FFF70BFF2068806840F00800216880
:1009E000886000F0C9FD054611E000F0C5FD401B20
:1009F0000A280CD9A06A20F0020040F01000A06282
:100A000000BF002084F8240000BF0120BFE7206859
:100A1000806800F008000028E7D12068806840F076
:100A200004002168886000F0A7FD054611E000F091
:100A3000A3FD401B0A280CD9A06A20F0020040F058
:100A40001000A06200BF002084F8240000BF012035
:100A50009DE72068806800F004000028E7D1A06AC4
:100A600020F0020040F00100A06200BF002084F8E6
:100A7000240000BF30468AE70000002038B5024657
:100A800000230020009000BF92F82400012801D12B
:100A9000022038BD012082F8240000BF48680728E2
:100AA00012D21068406B0C79641E04EB84051F247D
:100AB000AC40A0430D796D1E05EB85050C68AC407C
:100AC00020431468606327E048680D2812D210683C
:100AD000006B0C79E41F04EB84051F24AC40A04399
:100AE0000D79ED1F05EB85050C68AC4020431468BB
:100AF000206311E01068C06A0C790D3C04EB84059A
:100B00001F24AC40A0430D790D3D05EB85050C6815
:100B1000AC4020431468E06208680A2812D31068C9
:100B2000C0680C780A3C04EB44050724AC40A043A1
:100B30000D780A3D05EB45058C68AC4020431468F0
:100B4000E0600FE0106800690C7804EB44050724AE
:100B5000AC40A0430D7805EB45058C68AC402043C4
:100B6000146820610868102802D00868112827D16D
:100B7000174C1068A0421ED11068806800F4000075
:100B8000F0B91068806840F400001468A06008683C
:100B9000102815D10F4800680F4CB0FBF4F000EBA3
:100BA00080004000009002E00098401E00900098F5
:100BB0000028F9D104E0906A40F0200090620123FF
:100BC00000BF002082F8240000BF184661E7000043
:100BD000002401400000002040420F000146086848
:100BE000C06C70472DE9F04104460027002500261F
:100BF000A84614B90120BDE8F081A06810B1207D9D
:100C000000B100BFA06A30B90020E06284F824007F
:100C1000204600F097F82046FFF7BEFD0746A06A81
:100C200000F01000002873D1002F7ED1A06A20F4BC
:100C3000885040F00200A0623F4AD4E9000190428F
:100C400008D1E069B0F5402F02D14FF4002002E056
:100C5000E06900E0E0690143207B41EA400006438F
:100C6000A068B0F5807F02D0A068012802D14FF4BF
:100C7000807000E000200543207D012811D1207BF9
:100C800038B9A069401E4FF4006141EA4030054385
:100C900007E0A06A40F02000A062E06A40F0010096
:100CA000E0622068406820F4694028432168486079
:100CB0002068806821490840304321688860A06826
:100CC000B0F5807F02D0A068012802D14FF4807077
:100CD00000E00020B0F5807F03D1208A401E4FEA5B
:100CE00000582068C06A20F4700040EA08002168BB
:100CF000C8622068806812490840B04209D10020CB
:100D0000E062A06A20F0020040F00100A06211E061
:100D10000BE0A06A20F0020040F01000A062E06A40
:100D200040F00100E062012704E0A06A40F01000FA
:100D3000A062012738465EE7003C0140FDF7E1FF75
:100D4000FE0E1FFF10B58CB004461A492068884279
:100D50002ED1182102A8FFF7D0FB00BF16488069EA
:100D600040F08000144988610846806900F08000E6
:100D7000019000BF00BF00BF0846806940F40040FA
:100D800088610846806900F40040019000BF00BF00
:100D9000881508900320099008A9084800F034FA43
:100DA000022002908003049002A800F02FFD00BFF3
:100DB0000CB010BD003C014000100240001C01407E
:100DC000F8B504460D46002600200090002700F0EC
:100DD000D3FB06462068806800F4807050B1A06A9A
:100DE00040F02000A06200BF002084F8240000BF73
:100DF0000120F8BD2068406800F48070F8B92068D0
:100E0000C06A00F47000D0B912E0681C80B125B14E
:100E100000F0B2FB801BA8420AD9A06A40F004008F
:100E2000A06200BF002084F8240000BF0320E0E798
:100E30002068006800F002000028E6D050E00220A0
:100E400000F04AFC36490968B1FBF0F021680969F5
:100E5000344A114091B92168C9689211114069B9A9
:100E600021680969304A114031B92168C968921175
:100E7000114009B9142117E0292115E021680969F9
:100E8000294A114021B92168C9689211114041B124
:100E900021680969254A114029B92168C9681140AA
:100EA00009B9542100E0FC2100FB01F715E0681CA2
:100EB00080B125B100F060FB801BA8420AD9A06A6E
:100EC00040F00400A06200BF002084F8240000BFAE
:100ED00003208EE70098401C00900098B842E6D3AB
:100EE0006FF0120021680860A06A40F40070A062F0
:100EF0002068806800F46020B0F5602F0DD1207B61
:100F000058B9A06A20F48070A062A06A00F48050F2
:100F100018B9A06A40F00100A062002069E7000053
:100F2000000000202449922492244912499224006E
:100F300070B50446002500BF94F82400012801D1B3
:100F4000022070BD012084F8240000BF2046FFF776
:100F50004DFC0546002D77D1A06A40F2012188435F
:100F600040F48070A0623C492068884208D13B4828
:100F7000006800F4702008B9012002E0002000E0C1
:100F8000012078B1A06A20F48010A0622068406837
:100F900000F4806000B3A06A20F4005040F4805058
:100FA000A06219E0A06A40F48010A0622B49091FDA
:100FB0002068884203D028492068884204D1274805
:100FC000006800F4806000E0002028B1A06A20F4EE
:100FD000005040F48050A062A06A00F4805020B11C
:100FE000E06A20F00600E06201E00020E06200BF5D
:100FF000002084F8240000BFC01E2168086020681B
:10100000806800F46020B0F5602F16D11249206886
:10101000884208D11148006800F4702008B9012006
:1010200002E0002000E0012038B12068806840F430
:10103000A000216888600CE006E02068806840F429
:1010400080102168886004E000BF002084F824003C
:1010500000BF284675E70000002801400424014035
:1010600070B50446002594F82100022803D004201E
:10107000A0630125C1E02068006820F00E0021680F
:1010800008602068006820F00100216808605C4961
:101090002068884252D95A4978392068884201D15B
:1010A000012047E0564964392068884201D1102068
:1010B00040E0534950392068884201D1801539E019
:1010C0004F493C392068884201D1801432E04C49B4
:1010D00028392068884202D14FF480302AE04849FC
:1010E00014392068884202D14FF4801022E044492C
:1010F0002068884201D140041CE0424920688842AF
:1011000001D1012016E03F4914312068884201D105
:1011100010200FE03B4928312068884201D180151A
:1011200008E038493C312068884201D1801401E050
:101130004FF480303349091F086051E03049783955
:101140002068884201D1012047E02D496439206898
:10115000884201D1102040E0294950392068884256
:1011600001D1801539E026493C392068884201D1F7
:10117000801432E0224928392068884202D14FF495
:1011800080302AE01E4914392068884202D14FF489
:10119000801022E01A492068884201D140041CE0F6
:1011A00018492068884201D1012016E01549143100
:1011B0002068884201D110200FE0124928312068B0
:1011C000884201D1801508E00E493C3120688842F0
:1011D00001D1801401E04FF4803009498039486022
:1011E000012084F8210000BF002084F8200000BF07
:1011F000606B10B12046616B8847284670BD0000C7
:1012000080000240080402402DE9F847024600230E
:101210009C467BE14FF0010808FA03F4D1F8008006
:1012200008EA0400A0427DD1DFF8F4A2D1F80480DE
:10123000A8EB0A09D0453AD014DCB8F1030F50D01E
:1012400009DCB8F1000F31D0B8F1010F1CD0B8F1B2
:10125000020F49D120E0B8F1110F18D0B8F1120FE8
:1012600042D11EE0B9F5881F25D006DCB9F5803FD4
:1012700020D0B9F5801F37D11AE0B9F5001F18D07A
:10128000B9F5041F30D117E0D1F80CC02DE0D1F82A
:101290000C8008F1040C28E0D1F80C8008F1080C4F
:1012A00023E0D1F80C8008F10C0C1EE000BF00BF59
:1012B00000BF00BF00BF00BFD1F80880B8F1000F29
:1012C00002D14FF0040C0BE0D1F80880B8F1010F07
:1012D00003D14FF0080C146102E04FF0080C546188
:1012E00003E04FF0000C00E000BF00BFFF2801D872
:1012F000904601E002F104084646FF2802D84FEA72
:10130000830803E0A3F108084FEA88084746D6F8A7
:1013100000804FF00F0909FA07F928EA09080CFACA
:1013200007F900E07AE048EA0908C6F80080D1F839
:10133000048008F08058B8F1805F6FD100BFDFF8FB
:10134000E481D8F8188048F00108DFF8D891C9F88E
:101350001880C846D8F8188008F00108CDF8008039
:1013600000BF00BF4FEAB9384FEA930958F8295037
:101370004FEA83784FEA18794FF00F0808FA09F816
:1013800025EA0805DFF8A081424502D14FF00008A8
:1013900024E0DFF89881424502D14FF001081DE0BA
:1013A000DFF88C81424502D14FF0020816E0DFF8E9
:1013B0008481424502D14FF003080FE0DFF87881C5
:1013C000424502D14FF0040808E0DFF87081424541
:1013D00002D14FF0050801E04FF006084FEA83798B
:1013E0004FEA197908FA09F848EA0505DFF850814B
:1013F0004FEA930948F82950D1F8048008F480385E
:10140000B8F5803F0BD1DFF83C81D8F8008048EA7E
:101410000008DFF83091C9F800800AE075E0DFF8D5
:101420002481D8F8008028EA0008DFF81891C9F86C
:101430000080D1F8048008F40038B8F5003F0ED1E0
:10144000DFF8008108F10408D8F8008048EA0008B5
:10145000DFF8F09009F10409C9F800800DE0DFF829
:10146000E48008F10408D8F8008028EA0008DFF8D2
:10147000D49009F10409C9F80080D1F8048008F477
:101480008018B8F5801F0ED1DFF8B88008F1080881
:10149000D8F8008048EA0008DFF8A89009F10809A8
:1014A000C9F800800DE0DFF89C8008F10808D8F842
:1014B000008028EA0008DFF88C9009F10809C9F8D3
:1014C0000080D1F8048008F40018B8F5001F0ED190
:1014D000DFF8708008F10C08D8F8008048EA0008AE
:1014E000DFF8609009F10C09C9F800800DE0DFF821
:1014F000548008F10C08D8F8008028EA0008DFF8CA
:10150000449009F10C09C9F800805B1CD1F80080F7
:1015100028FA03F8B8F1000F7FF47CAEBDE8F88735
:10152000000011100010024000080140000C0140B2
:10153000001001400014014000180140001C01404F
:101540000800014000040140024693680B400BB1C3
:10155000012000E00020704710B5C26821EA0203B4
:1015600002EA010443EA0443036110BD0AB10161C8
:1015700001E00B04036170470148006870470000F8
:101580002400002003480068034909780844014901
:1015900008607047240000202C00002010B5084887
:1015A000006840F0100006490860032000F080F851
:1015B0000F2000F007F800F02BF8002010BD00000D
:1015C0000020024070B504460E4800784FF47A714E
:1015D000B1FBF0F00C490968B1FBF0F5284600F0CA
:1015E000A5FD08B1012070BD102C07D200222146B4
:1015F000501E00F01EF80548046001E00120F2E7EB
:101600000020F0E72C00002000000020280000202F
:10161000704701460846002809DB00F01F0301223D
:101620009A4043099B0003F1E023C3F8002100BF67
:1016300070472DE9F05F80460D461646002701F001
:1016400095F9074639462A46334601F00700C0F1AE
:10165000070ABAF1040F02D94FF0040A01E0C0F101
:10166000070AD14600F1040ABAF1070F02D24FF07F
:10167000000A01E0A0F1030AD4464FF0010A0AFA79
:1016800009FAAAF1010A0AEA020A0AFA0CFA4FF068
:10169000010B0BFA0CFBABF1010B0BEA030B4AEA53
:1016A0000B042146404601F069F9BDE8F09F0000B7
:1016B00000BF00F00702064B19684FF6FF03194000
:1016C000044B0B4343EA0221014B196000BF7047F2
:1016D0000CED00E00000FA052DE9F04385B0064668
:1016E00042A30FCB01AC0FC444A0006800904FF0A0
:1016F0000008002500270024A146042E36D004DC73
:10170000012E3BD0022E6BD15FE0082E32D0102E7E
:1017100066D13B484468006800F0807000B301A8BF
:10172000C4F38341475C04F4803070B134484068AE
:10173000C0F340401DF8008004F4803040B13148CF
:10174000B0FBF8F000FB07F502E02F4807FB00F5BF
:101750002B48406800F48000B0F5800F01D1A94605
:1017600003E068000321B0FBF1F93AE000F0D2F9A0
:10177000814636E000F0CEF9814632E02048046A26
:1017800004F44070B0F5807F05D104F0020010B180
:101790004FF4004918E004F44070B0F5007F07D121
:1017A0001748406A00F0020010B149F640490BE0CA
:1017B00004F44070B0F5407F06D11148006800F491
:1017C000003008B14FF224490BE000F093F90C49C6
:1017D0004968C1F38131491C4900B0FBF1F900E0CF
:1017E00000BF00BF484605B0BDE8F0830203040512
:1017F000060708090A0B0C0D0E0F1010010200005D
:101800000010024000127A0000093D00F8B50446BD
:1018100000260025207800F0010000286BD000276A
:101820004348C06900F0805070B900BF4048C069AB
:1018300040F080503E49C8610846C06900F08050C1
:10184000009000BF00BF01273A48006800F4807094
:10185000B0B93848006840F4807036490860FFF736
:101860008BFE064606E0FFF787FE801B642801D941
:101870000320F8BD2F48006800F480700028F2D0E3
:101880002B48006A00F440752DB3A08800F4407026
:10189000A84220D02648006A20F44075012026493D
:1018A0000860002008602248056205F0010090B140
:1018B000FFF762FE064608E0FFF75EFE801B41F27E
:1018C0008831884201D90320D3E71948006A00F023
:1018D00002000028F0D01648006A20F440706168C9
:1018E000084313490862012F04D10846C06920F05B
:1018F0008050C86100BF207800F00200022807D1A4
:101900000B48406820F44040A168084308494860FB
:10191000207800F01000102807D10548406820F416
:10192000800061690843024948600020A1E7000087
:1019300000100240007000404004424270B504466E
:101940000D460CB9012070BD5A48006800F0070030
:10195000A8420ED25748006820F007002843554996
:1019600008600846006800F00700A84201D0012086
:10197000E9E7207800F0020002281DD1207800F06D
:101980000400042805D14C48406840F4E0604A490E
:101990004860207800F00800082805D146484068D3
:1019A00040F46050444948604348406820F0F000EB
:1019B000A168084340494860207800F0010078B3EE
:1019C0006068012806D13C48006800F4003090B9F6
:1019D0000120B8E76068022806D13748006800F0A7
:1019E000007040B90120AEE73348006800F0020003
:1019F00008B90120A7E73048406820F0030061687B
:101A000008432D494860FFF7B7FD064609E0FFF798
:101A1000B3FD801B41F28831884202D9032092E74E
:101A200007E02548406800F00C006168B0EB810FCA
:101A3000EDD12048006800F00700A8420ED91D48EB
:101A4000006820F0070028431A490860084600682B
:101A500000F00700A84201D0012074E7207800F0D0
:101A60000400042807D11448406820F4E060E168CD
:101A7000084311494860207800F00800082808D180
:101A80000D48406820F46050216940EAC1000A49CD
:101A9000486000F03FF808494968C1F30311074A5C
:101AA000515CC8400649086006480068FFF78AFD97
:101AB000002048E700200240001002404491000846
:101AC0000000002028000020014800687047000046
:101AD0000000002000B5FFF7F7FF04494968C1F393
:101AE0000221034A515CC84000BD000000100240C2
:101AF0005491000800B5FFF7E7FF04494968C1F3B6
:101B0000C221034A515CC84000BD000000100240E1
:101B100054910008F0B585B00FF26C0C9CE8E01011
:101B200001A8A0E8E0101CA52D6800950021002266
:101B3000002300240020194D696801F00C05F5B15F
:101B4000042D02D0082D19D101E0154819E001AD8E
:101B5000C1F38346AC5D01F4803555B10F4D6D681E
:101B6000C5F340451DF805200D4D6543B5FBF2F367
:101B700002E00C4D04FB05F3184602E000BF0848E4
:101B800000BF00BF05B0F0BD020304050607080949
:101B90000A0B0C0D0E0F1010010200000010024085
:101BA00000127A0000093D00F8B504460CB9012086
:101BB000F8BD207800F00100002878D0F84840688F
:101BC00000F00C0004280CD0F548406800F00C0030
:101BD000082811D1F248406800F48030B0F5803F09
:101BE0000AD1EF48006800F4003000285FD0606838
:101BF00000285CD10120DBE700BF6068B0F5803FC2
:101C000006D1E748006840F48030E549086028E0E4
:101C1000606858B9E248006820F48030E049086004
:101C20000846006820F4802008601AE06068B0F57B
:101C3000A02F0BD1DA48006840F48020D849086012
:101C40000846006840F4803008600AE0D448006824
:101C500020F48030D24908600846006820F48020D3
:101C6000086000BF606888B1FFF786FC054606E0A3
:101C7000FFF782FC401B642801D9032098E7C8487D
:101C8000006800F400300028F2D010E0FFF774FC88
:101C9000054606E0FFF770FC401B642801D90320CD
:101CA00086E7BF48006800F400300028F2D12078B1
:101CB00000F00200022857D1B948406800F00C003B
:101CC00050B1B748406800F00C00082818D1B4485B
:101CD000406800F4803098B9B148006800F0020014
:101CE00020B12069012801D0012061E7AC480068DB
:101CF00020F0F800616940EAC100A949086033E0BA
:101D00002069E8B10120A7490860FFF735FC0546C6
:101D100006E0FFF731FC401B022801D9032047E70A
:101D20009F48006800F002000028F2D09C4800683C
:101D300020F0F800616940EAC1009949086013E0A9
:101D4000002098490860FFF717FC054606E0FFF7FA
:101D500013FC401B022801D9032029E790480068A2
:101D600000F002000028F2D1207800F008000828D6
:101D70002DD1A069B8B101208B490860FFF7FCFBA9
:101D8000054606E0FFF7F8FB401B022801D90320B7
:101D90000EE78348406A00F002000028F2D00120DC
:101DA00000F08AFC13E000207F490860FFF7E4FBA5
:101DB000054606E0FFF7E0FB401B022801D903209F
:101DC000F6E67748406A00F002000028F2D1207859
:101DD00000F00400042873D100277148C06900F0A6
:101DE000805070B900BF6E48C06940F080506C49A7
:101DF000C8610846C06900F08050009000BF00BF75
:101E000001276A48006800F48070B0B9674800682C
:101E100040F4807065490860FFF7AEFB054606E0B8
:101E2000FFF7AAFB401B642801D90320C0E65F48E6
:101E3000006800F480700028F2D000BFE06801283C
:101E400006D15748006A40F001005549086227E072
:101E5000E06858B95248006A20F001005049086211
:101E60000846006A20F00400086219E0E0680528CE
:101E70000BD14B48006A40F004004949086208460B
:101E8000006A40F0010008620AE04548006A20F05C
:101E90000100434908620846006A20F00400086215
:101EA00000BFE068A0B1FFF767FB054609E0FFF758
:101EB00063FB401B41F28831884202D9032077E658
:101EC00022E03748006A00F002000028EFD012E05C
:101ED000FFF752FB054608E0FFF74EFB401B41F2BF
:101EE0008831884201D9032062E62D48006A00F05B
:101EF00002000028F0D1012F05D12948C06920F047
:101F000080502749C86100BFE069C8B324484068D1
:101F100000F00C00082860D0E069022848D10020B9
:101F200020490866FFF728FB054606E0FFF724FB7B
:101F3000401B022801D903203AE61948006800F046
:101F400000700028F2D1206AB0F5803F07D1144814
:101F5000406820F40030A168084311494860D4E982
:101F6000080108430E49496821F4741108430C49DB
:101F7000486001200B490866FFF7FEFA054607E0B6
:101F80003DE0FFF7F9FA401B022801D903200FE6D4
:101F90000348006800F000700028F2D02FE0000035
:101FA00000100240000042428004424200700040A3
:101FB000002014490866FFF7DFFA054606E0FFF740
:101FC000DBFA401B022801D90320F1E50E48006826
:101FD00000F000700028F2D111E0E069012800D182
:101FE000E6E50948466806F48031206A814204D15A
:101FF00006F47011606A814201D00120D8E500200A
:10200000D6E50000000042420010024070B50446D0
:102010000E4615461CB1A069B0F5807F01D10120A4
:1020200070BD94F8410028B9002084F84000204693
:1020300000F020F804F108012068FEF73FFC31466B
:10204000A2682068FEF776FC2946236BD4E90102DA
:10205000FEF712FCA168206850F8210040F0010052
:10206000A268216841F82200012084F84100002084
:10207000D6E7000010B586B0044600BF1E48406990
:1020800040F480701C4948610846406900F4807043
:10209000019000BF00BF00BF0846806940F02000EB
:1020A00088610846806900F02000019000BF00BFF1
:1020B00000BF0846806940F040008861084680699A
:1020C00000F04000019000BF00BF4CF2037002908E
:1020D00002200390012004900320059002A90748E4
:1020E000FFF792F84FF68070029002A90448FFF7BC
:1020F0008BF806B010BD0000001002400014014033
:1021000000180140042808D14FF0E021096941F08E
:1021100004014FF0E022116107E04FF0E02109696E
:1021200021F004014FF0E0221161704770B50446C0
:102130002546681EB0F1807F01D301200FE0681EA4
:102140004FF0E02148610F214FF0FF3000F016FC06
:1021500000204FF0E021886107200861002070BD59
:1021600070477047704710B5044620680069C0F397
:102170004000D8B12068C068C0F34000B0B16FF033
:10218000020021680861012020772068806900F042
:10219000030018B12046FFF7E5FF05E0204600F0F8
:1021A000ADF8204600F0ABF80020207720680069E9
:1021B000C0F38000D8B12068C068C0F38000B0B11F
:1021C0006FF0040021680861022020772068806990
:1021D00000F4407018B12046FFF7C4FF05E0204628
:1021E00000F08CF8204600F08AF800202077206864
:1021F0000069C0F3C000D8B12068C068C0F3C00057
:10220000B0B16FF0080021680861042020772068D1
:10221000C06900F0030018B12046FFF7A3FF05E0F6
:10222000204600F06BF8204600F069F80020207787
:1022300020680069C0F30010D8B12068C068C0F3FE
:102240000010B0B16FF010002168086108202077FD
:102250002068C06900F4407018B12046FFF782FF83
:1022600005E0204600F04AF8204600F048F800203B
:1022700020772068006900F0010058B12068C0682C
:1022800000F0010030B16FF00100216808612046C4
:1022900000F036F820680069C0F3C01058B120681B
:1022A000C068C0F3C01030B16FF0800021680861D1
:1022B0002046FFF755FF20680069C0F3801058B131
:1022C0002068C068C0F3801030B16FF04000216812
:1022D0000861204600F024F820680069C0F340102F
:1022E00058B12068C068C0F3401030B16FF02000D2
:1022F000216808612046FFF734FF10BD7047704722
:1023000010B504460448844205D100BF202103488B
:10231000FFF722F900BF10BD800200200018014025
:10232000704770472DE9F04704462068056820682B
:10233000C668206847694FF00008C14605F00F08DD
:10234000B8F1000F0AD105F0200038B106F02000E6
:1023500020B1204600F002FABDE8F087B8F1000F86
:1023600071D007F0010018B906F4907000286AD007
:1023700005F0010030B106F4807018B1E06B40F058
:102380000100E06305F0040030B107F0010018B16E
:10239000E06B40F00200E06305F0020030B107F0AE
:1023A000010018B1E06B40F00400E06305F00800A4
:1023B00048B106F0200010B907F0010018B1E06B39
:1023C00040F00800E063E06B68B305F0200028B13E
:1023D00006F0200010B1204600F0C0F920684069E6
:1023E000C0F38019E06B00F0080010B9B9F1000FDC
:1023F00022D0204600F092F92068406900F04000A9
:10240000B0B12068406920F0400021684861606BED
:1024100050B11848616B4863606BFEF721FE10B144
:10242000606B416B88470CE02046FFF77AFF08E0BD
:102430002046FFF776FF04E02046FFF772FF0020FA
:10244000E06389E7FFE705F0800030B106F0800027
:1024500018B1204600F050FA7EE705F0400030B198
:1024600006F0400018B1204600F068F974E700BF9C
:1024700072E700000927000810B504460CB90120D6
:1024800010BDA06900B100E000BF94F8390028B980
:10249000002084F83800204600F028F8242084F832
:1024A00039002068C06820F400502168C8602046C8
:1024B00000F0A4F92068006920F4904021680861C8
:1024C0002068406920F02A00216848612068C068BF
:1024D00040F400502168C8600020E063202084F8A8
:1024E000390084F83A000020CAE7000010B586B031
:1024F00004462849206888424AD100BF00BF2648C8
:10250000806940F00400244988610846806900F031
:102510000400019000BF00BF00BF00BF00BF08461D
:10252000806940F0040088610846806900F004007A
:10253000019000BF00BF00BF00BF00BF0846806918
:1025400040F4804088610846806900F48040019032
:1025500000BF00BF00BF4815029002200390012079
:1025600004900320059002A90C48FEF74DFE4FF49D
:10257000806002900020039002A90848FEF744FE04
:102580002520FFF746F8032211462520FFF751F8D2
:1025900006B010BD003801400010024000080140A4
:1025A00010B5034693F83A0020282FD101B10AB99B
:1025B000012010BD00BF93F83800012801D102208E
:1025C000F7E7012083F8380000BF99629A85DA8521
:1025D0000020D863222083F83A0000BF002083F84F
:1025E000380000BF1868C06840F480701C68E06064
:1025F0001868406940F001001C6860611868C06894
:1026000040F020001C68E0600020D2E70220D0E704
:1026100010B504462049206888423BD11F480088F5
:1026200000F4004088BB1D48008800F4804070B171
:102630001B4800780A2803D000201849088024E0AD
:102640001648008840F40040144908801DE01448F2
:1026500000780D2806D11148008840F480400F49C9
:10266000088012E00E4800780C490988C1F30D017A
:102670000C4A505409480088401C08490880084604
:102680000088C72801DD002008800122044906488F
:10269000FFF786FF10BD0000003801402000002039
:1026A00022000020D8000020A0010020704700BFB9
:1026B000FEE700BFFEE7704708B508490968C9088A
:1026C0004FF47A72B1FBF2F14143009100BF00BFB9
:1026D00000994A1E00920029F9D108BD000000208F
:1026E00010B5FEF74FFF06F0A7F8012801D005F05E
:1026F0006DFE10BD7047000010B50248FFF733FDB6
:1027000010BD00008002002070B505466C6A0020F4
:10271000E085E0842046FFF704FE70BD0168C968CB
:1027200021F490710268D1600168496921F00101CA
:1027300002685161202180F83A10704710B50446B4
:102740002068C06820F040002168C860202084F81C
:1027500039002046FFF7AAFF002010BD70B50446DF
:1027600094F83A00222847D1A068B0F5805F0CD1D8
:10277000206950B90025A66A20684068C0F30800A7
:102780003080A06A801CA06215E0A56A0026A068BF
:10279000B0F5805F03D0A06828B9206918B9206817
:1027A0004068287004E02068406800F07F002870CE
:1027B000A06A401CA062E08D401E80B2E085C8B9CE
:1027C0002068C06820F020002168C8602068C068C8
:1027D00020F480702168C8602068406920F0010002
:1027E00021684861202084F83A002046FFF710FF56
:1027F000002070BD0020FCE70220FAE770B5044617
:102800002168096921F44051E2681143226811618D
:102810002269A1681143626941EA02052168C96819
:1028200041F20C62914329432268D16021684969D1
:1028300021F44071A2691143226851612D4A216837
:10284000914202D1FFF756F901E0FFF743F900EB9F
:10285000C00101EB001162689200B1FBF2F100EBE4
:10286000C00202EB001263689B00B2FBF3F2642328
:10287000B2FBF3F202EBC20303EB0212A1EB820103
:10288000322202EB01116422B1FBF2F101F0F001FE
:1028900000EBC00202EB001263689B00B2FBF3F294
:1028A0006423B2FBF3F201EB021200EBC00101EB77
:1028B000001163689B00B1FBF3F100EBC00303EB75
:1028C00000136668B600B3FBF6F36426B3FBF6F3B9
:1028D00003EBC30606EB0313A1EB8301322303EBE7
:1028E00001116423B1FBF3F101F00F0111442268DF
:1028F000916070BD00380140014691F839002128EF
:1029000028D18868B0F5805F0BD1086948B90A6A98
:102910001088C0F308000B685860086A801C0862C1
:1029200005E00B6A581C086218780B685860C88C60
:10293000401E80B2C88458B90868C06820F0800082
:102940000B68D8600868C06840F040000B68D86029
:10295000002070470220FCE710B50248FFF7E2FCB8
:1029600010BD0000A001002000BFFEE70248006883
:10297000C0F30220704700000CED00E010B5002805
:1029800004DB0A07130E054A135406E00A07140E67
:10299000034A00F00F031B1FD45410BD00E400E0F5
:1029A00018ED00E000BF70470EB5104810490860F0
:1029B0000020486000210E488160017301210161FF
:1029C0000021017581614FF46021C161FEF70AF9B0
:1029D0000748FDF7D1FF0620009001200190072055
:1029E000029069460248FEF749F80EBD003C0140DE
:1029F000C802002010B50648FEF79AFA0A210448DA
:102A0000FEF7DEF90248FEF7E9F880B210BD0000DB
:102A1000C802002070B5044600204FF0E021086194
:102A2000FFF770FBE11704EB5171C1F3CF010C4AC2
:102A30001180E11704EB5171CD104FF47A704543CA
:102A40004FF0E020006940F002004FF0E021086103
:102A500008464561006940F00100086170BD000052
:102A60001800002030B50446002504E04FF47A70C9
:102A700000F004F86D1CA542F8D330BD70B50346D4
:102A800000224FF0E02675690D4E368803FB06F4F0
:102A90004FF0E026B16910E04FF0E026B0698842BF
:102AA0000BD0884202D20E1A324402E02E1A0E4493
:102AB00032440146A24200D300E0EDE700BF70BD02
:102AC0001800002000BF054A126802F04002002AE8
:102AD000F9D0C2B2014B1B1D1A607047003801408B
:102AE0001CB50648012100238022CDE9001004A175
:102AF000064805F071FE05F067FA1CBD08000020CD
:102B000073746172745F7461736B0000B574000854
:102B100000B585B000BF00BF3648806940F0400076
:102B2000344988610846806900F04000009000BF89
:102B300000BF00BF00BF00BF0846806940F04000F2
:102B400088610846806900F04000009000BF00BF27
:102B500000BF00BF00BF0846806940F040008861A8
:102B60000846806900F04000009000BF00BF00BF31
:102B700000BF00BF0846806940F004008861084635
:102B8000806900F00400009000BF00BF00BF10206B
:102B9000019000200290012003900320049001A9DD
:102BA0001548FEF731FB082001900020029001201B
:102BB00003900320049001A90F48FEF725FB042091
:102BC000019000200290012003900320049001A9AD
:102BD0000948FEF719FB0120019000200290022015
:102BE00003900320049001A90448FEF70DFB05B0F3
:102BF00000BD000000100240001801400008014024
:102C000070B50446002514B101202B4908702A48EC
:102C10000078002834D010212848FEF795FC78B1C0
:102C200008212648FEF790FC50B104212348FEF706
:102C30008BFC28B101212248FEF786FC01281FD118
:102C40000A20FFF70FFF00201B49087010211B48C6
:102C5000FEF77AFC00B9012508211848FEF774FC3C
:102C600000B9022504211548FEF76EFC00B90325C2
:102C700001211348FEF768FC01281BD1042519E047
:102C800010210E48FEF760FC012813D108210B48E3
:102C9000FEF75AFC01280DD104210848FEF754FC28
:102CA000012807D101210648FEF74EFC10B901208A
:102CB00001490870284670BD380000200018014006
:102CC0000008014070B50446002609480588408880
:102CD00045430021084603F079F903F081FB00BF6A
:102CE00002E004480480761CAE42FAD370BD0000B6
:102CF000280200200008006C10B504465848847172
:102D0000002C58D1F020564908804FF4A07048801C
:102D10000846808845F21051884210D14FF4305057
:102D20004F4908814FF4285048814FF42C50888136
:102D30004FF4F07008804FF4487048801AE048481B
:102D4000808841F6631188420DD12C2044490881C6
:102D50002B2048812A2088814FF4F07008804FF49E
:102D60004870488006E02C203D4908812A2048818F
:102D70002B2088813A48808845F21031884205D05E
:102D80003748808847F29671884206D14FF4A07088
:102D9000334908804FF4F07048803148808849F604
:102DA0000601884258D14FF4F0702D4908804FF445
:102DB0004870488050E04FF4A07029490880F02006
:102DC00048800846808845F21051884210D14FF45F
:102DD0003050234908814FF4285048814FF42C503B
:102DE00088814FF4487008804FF4F070488020E0EC
:102DF0001B48808841F66311884205D018488088B6
:102E000049F6060188420DD12C20154908812A2057
:102E100048812B2088814FF4487008804FF4F0706F
:102E2000488006E02C200E4908812A2048812B206A
:102E300088810B48808845F21031884205D00848C7
:102E4000808847F29671884206D14FF4F0700449A9
:102E500008804FF4A0704880002002F099FF10BD58
:102E600028020020F8B504460D4616461F463EB11E
:102E700009480088A04203DB07484088A84200DADE
:102E8000F8BDA019401E82B22B4629462046009765
:102E900002F0AAFC00BFF3E7280200202DE9FF4F53
:102EA00084B081468A460020029083460698A0EBB3
:102EB00009050798A0EB0A06CDF80490CDF800A00C
:102EC000002D01DD012705E00DB9002702E04FF0DC
:102ED000FF376D42002E02DD4FF0010806E016B903
:102EE0004FF0000802E04FF0FF387642B54201DDB6
:102EF0002C4600E03446002003901EE0009A91B278
:102F0000019A90B2119A00F01FF80298284402909A
:102F1000B3440298A04205DD0298001B029001987C
:102F200038440190A34504DDABEB040B009840440A
:102F300000900398401C80B20390611C0398884263
:102F4000DCDD08B0BDE8F08F70B505460E461446CE
:102F50003146284603F03AF803F042FA01490C8062
:102F600070BD00000008006C2DE9F84105460E46D2
:102F700017469846079C33463A4631462846009401
:102F8000FFF78CFF43462A46314628460094FFF758
:102F900085FF43463A46414628460094FFF77EFFA8
:102FA00043463A46314638460094FFF777FFBDE87E
:102FB000F88110B5CF2003F007FA002003F0F8F9EC
:102FC000C12003F0F5F9302003F0F2F9ED2003F011
:102FD000FBF9642003F0ECF9032003F0E9F9122077
:102FE00003F0E6F9812003F0E3F9E82003F0ECF9BF
:102FF000852003F0DDF9102003F0DAF97A2003F0E0
:10300000D7F9CB2003F0E0F9392003F0D1F92C20D7
:1030100003F0CEF9002003F0CBF9342003F0C8F917
:10302000022003F0C5F9F72003F0CEF9202003F0C9
:10303000BFF9EA2003F0C8F9002003F0B9F9002035
:1030400003F0B6F9C02003F0BFF91B2003F0B0F97C
:10305000C12003F0B9F9012003F0AAF9C52003F05B
:10306000B3F9302003F0A4F9302003F0A1F9C72010
:1030700003F0AAF9B72003F09BF9362003F0A4F976
:10308000482003F095F93A2003F09EF9552003F00B
:103090008FF9B12003F098F9002003F089F91A2084
:1030A00003F086F9B62003F08FF90A2003F080F9C7
:1030B000A22003F07DF9F22003F086F9002003F04E
:1030C00077F9262003F080F9012003F071F9E02060
:1030D00003F07AF90F2003F06BF92A2003F068F966
:1030E000282003F065F9082003F062F90E2003F0B0
:1030F0005FF9082003F05CF9542003F059F9A92086
:1031000003F056F9432003F053F90A2003F050F975
:103110000F2003F04DF9002003F04AF9002003F0DE
:1031200047F9002003F044F9002003F041F9E120C1
:1031300003F04AF9002003F03BF9152003F038F9B9
:10314000172003F035F9072003F032F9112003F0BE
:103150002FF9062003F02CF92B2003F029F9562033
:1031600003F026F93C2003F023F9052003F020F9B1
:10317000102003F01DF90F2003F01AF93F2003F08F
:1031800017F93F2003F014F90F2003F011F92B2059
:1031900003F01AF9002003F00BF9002003F008F9FE
:1031A000012003F005F93F2003F002F92A2003F083
:1031B0000BF9002003F0FCF8002003F0F9F80020E0
:1031C00003F0F6F8EF2003F0F3F8112003F0FCF819
:1031D0007820FFF747FC292003F0F6F810BD10B562
:1031E000FF2003F0F1F8FF2003F0E2F8982003F04D
:1031F000DFF8062003F0DCF8BC2003F0E5F801203E
:1032000003F0D6F80F2003F0D3F8612003F0D0F8D4
:10321000FF2003F0CDF8012003F0CAF8012003F0ED
:10322000C7F80B2003F0C4F8102003F0C1F83720D2
:1032300003F0BEF8632003F0BBF8FF2003F0B8F8FA
:10324000FF2003F0B5F8012003F0B2F8012003F0ED
:10325000AFF8002003F0ACF8002003F0A9F8FF203D
:1032600003F0A6F8522003F0A3F8012003F0A0F821
:10327000002003F09DF8402003F09AF8BD2003F0F1
:10328000A3F8012003F094F8232003F091F84520DF
:1032900003F08EF8672003F08BF8012003F088F824
:1032A000232003F085F8452003F082F8672003F01F
:1032B0007FF8BE2003F088F8002003F079F80120A1
:1032C00003F076F8AB2003F073F8602003F070F899
:1032D000222003F06DF8222003F06AF8222003F088
:1032E00067F8222003F064F8222003F061F8C72079
:1032F00003F06AF8362003F05BF8ED2003F064F881
:103300007F2003F055F80F2003F052F8C02003F09F
:103310005BF80F2003F04CF80B2003F049F80A206B
:1033200003F046F8FC2003F04FF8082003F040F8C3
:10333000DF2003F049F8002003F03AF8002003F002
:1033400037F8002003F034F8002003F031F80020B3
:1033500003F02EF8202003F02BF8F32003F034F8CC
:10336000742003F025F8B42003F02EF8002003F0B9
:103370001FF8002003F01CF8002003F019F8F720D4
:1033800003F022F8822003F013F8B12003F01CF8B8
:10339000002003F00DF8132003F00AF8132003F0C7
:1033A00007F8F22003F010F8802003F001F8042061
:1033B00002F0FEFF402002F0FBFF282002F0F8FFA1
:1033C000C12003F001F8172002F0F2FF882002F07C
:1033D000EFFF882002F0ECFF202002F0E9FFE02060
:1033E00002F0F2FF002002F0E3FF0A2002F0E0FF0B
:1033F000122002F0DDFF102002F0DAFF0E2002F0B2
:10340000D7FF202002F0D4FFCC2002F0D1FF07200C
:1034100002F0CEFF062002F0CBFF0B2002F0C8FF27
:103420000E2002F0C5FF0F2002F0C2FF0D2002F0B7
:10343000BFFF152002F0BCFF102002F0B9FF0020F2
:1034400002F0B6FFE12002F0BFFF002002F0B0FF63
:103450000B2002F0ADFF132002F0AAFF0D2002F0B6
:10346000A7FF0E2002F0A4FF1B2002F0A1FF712095
:1034700002F09EFF062002F09BFF062002F098FF5C
:103480000A2002F095FF0F2002F092FF0E2002F0BA
:103490008FFF0F2002F08CFF152002F089FF0C2017
:1034A00002F086FF002002F083FF2A2002F08CFF4A
:1034B000002002F07DFF002002F07AFF012002F0E0
:1034C00077FFDF2002F074FF2B2002F07DFF002049
:1034D00002F06EFF002002F06BFF032002F068FF95
:1034E0001F2002F065FF3A2002F06EFF552002F027
:1034F0005FFF362002F068FF002002F059FF112024
:1035000002F062FF7820FFF7ADFA292002F05CFF9D
:103510001420FFF7A7FA2C2002F056FF10BD10B5BB
:10352000ED2002F051FF012002F042FFFE2002F0E8
:103530003FFFEE2002F048FFDE2002F039FF21209D
:1035400002F036FFF12002F03FFF012002F030FFD1
:10355000DF2002F039FF102002F02AFFC42002F021
:1035600033FF8F2002F024FFC62002F02DFF002041
:1035700002F01EFFE22002F01BFFE22002F018FF23
:10358000E22002F015FFBF2002F01EFFAA2002F089
:103590000FFFB02002F018FF0D2002F009FF0020FD
:1035A00002F006FF0D2002F003FF002002F000FFF2
:1035B000112002F0FDFE002002F0FAFE192002F0B8
:1035C000F7FE002002F0F4FE212002F0F1FE0020C0
:1035D00002F0EEFE2D2002F0EBFE002002F0E8FEED
:1035E0003D2002F0E5FE002002F0E2FE5D2002F048
:1035F000DFFE002002F0DCFE5D2002F0D9FE00209C
:1036000002F0D6FEB12002F0DFFE802002F0D0FEF4
:10361000002002F0CDFE8B2002F0CAFE002002F056
:10362000C7FE962002F0C4FE002002F0C1FEB220C8
:1036300002F0CAFE002002F0BBFE002002F0B8FE3D
:10364000022002F0B5FE002002F0B2FE032002F0DC
:10365000AFFE002002F0ACFEB32002F0B5FE002069
:1036600002F0A6FE002002F0A3FE002002F0A0FE61
:10367000002002F09DFE002002F09AFE002002F0E1
:1036800097FE002002F094FE002002F091FE002040
:1036900002F08EFE002002F08BFE002002F088FE79
:1036A000002002F085FE002002F082FE002002F0E1
:1036B0007FFE002002F07CFE002002F079FE002058
:1036C00002F076FE002002F073FE002002F070FE91
:1036D000002002F06DFE002002F06AFE002002F0E1
:1036E00067FE002002F064FE002002F061FEB420BC
:1036F00002F06AFE8B2002F05BFE002002F058FE12
:10370000962002F055FE002002F052FEA12002F0A9
:103710004FFE002002F04CFEB52002F055FE0220C4
:1037200002F046FE002002F043FE032002F040FEBD
:10373000002002F03DFE042002F03AFE002002F0DC
:1037400037FEB62002F040FE002002F031FE0020DD
:1037500002F02EFEB72002F037FE002002F028FE15
:10376000002002F025FE3F2002F022FE002002F0A1
:103770001FFE5E2002F01CFE002002F019FE6420F5
:1037800002F016FE002002F013FE8C2002F010FE64
:10379000002002F00DFEAC2002F00AFE002002F034
:1037A00007FEDC2002F004FE002002F001FE702083
:1037B00002F0FEFD002002F0FBFD902002F0F8FD7B
:1037C000002002F0F5FDEB2002F0F2FD002002F0F7
:1037D000EFFDDC2002F0ECFD002002F0E9FDB82056
:1037E00002F0F2FD002002F0E3FD002002F0E0FD17
:1037F000002002F0DDFD002002F0DAFD002002F0E2
:10380000D7FD002002F0D4FD002002F0D1FD002001
:1038100002F0CEFDBA2002F0D7FD242002F0C8FD50
:10382000002002F0C5FD002002F0C2FD002002F0E1
:10383000BFFDC12002F0C8FD202002F0B9FD00202C
:1038400002F0B6FD542002F0B3FD002002F0B0FDFE
:10385000FF2002F0ADFD002002F0AAFDC22002F020
:10386000B3FD0A2002F0A4FD002002F0A1FD042017
:1038700002F09EFD002002F09BFDC32002F0A4FD9B
:103880003C2002F095FD002002F092FD3A2002F06B
:103890008FFD002002F08CFD392002F089FD002010
:1038A00002F086FD372002F083FD002002F080FD4B
:1038B0003C2002F07DFD002002F07AFD362002F06F
:1038C00077FD002002F074FD322002F071FD00202F
:1038D00002F06EFD2F2002F06BFD002002F068FD6B
:1038E0002C2002F065FD002002F062FD292002F08C
:1038F0005FFD002002F05CFD262002F059FD002053
:1039000002F056FD242002F053FD002002F050FD8D
:10391000242002F04DFD002002F04AFD232002F099
:1039200047FD002002F044FD3C2002F041FD002054
:1039300002F03EFD362002F03BFD002002F038FD93
:10394000322002F035FD002002F032FD2F2002F07F
:103950002FFD002002F02CFD2C2002F029FD00207C
:1039600002F026FD292002F023FD002002F020FDB8
:10397000262002F01DFD002002F01AFD242002F096
:1039800017FD002002F014FD242002F011FD00209C
:1039900002F00EFD232002F00BFD002002F008FDD6
:1039A000C42002F011FD622002F002FD002002F0AE
:1039B000FFFC052002F0FCFC002002F0F9FC842052
:1039C00002F0F6FC002002F0F3FCF02002F0F0FC24
:1039D000002002F0EDFC182002F0EAFC002002F0CA
:1039E000E7FCA42002F0E4FC002002F0E1FC182037
:1039F00002F0DEFC002002F0DBFC502002F0D8FCDC
:103A0000002002F0D5FC0C2002F0D2FC002002F0D5
:103A1000CFFC172002F0CCFC002002F0C9FC95205E
:103A200002F0C6FC002002F0C3FCF32002F0C0FC50
:103A3000002002F0BDFCE62002F0BAFC002002F0FB
:103A4000B7FCC52002F0C0FC322002F0B1FC00201F
:103A500002F0AEFC442002F0ABFC002002F0A8FC17
:103A6000652002F0A5FC002002F0A2FC762002F006
:103A70009FFC002002F09CFC882002F099FC0020B2
:103A800002F096FCC62002F09FFC202002F090FC81
:103A9000002002F08DFC172002F08AFC002002F0CA
:103AA00087FC012002F084FC002002F081FCC7208A
:103AB00002F08AFC002002F07BFC002002F078FC7F
:103AC000002002F075FC002002F072FCC82002F019
:103AD0007BFC002002F06CFC002002F069FC00205E
:103AE00002F066FC002002F063FCC92002F06CFCCE
:103AF000002002F05DFC002002F05AFC002002F0E1
:103B000057FC002002F054FC002002F051FC002081
:103B100002F04EFC002002F04BFC002002F048FCBA
:103B2000002002F045FC002002F042FC002002F0E0
:103B30003FFC002002F03CFC002002F039FC002099
:103B400002F036FC002002F033FC002002F030FCD2
:103B5000E02002F039FC162002F02AFC002002F0DE
:103B600027FC1C2002F024FC002002F021FC212074
:103B700002F01EFC002002F01BFC362002F018FCB4
:103B8000002002F015FC462002F012FC002002F09A
:103B90000FFC522002F00CFC002002F009FC642013
:103BA00002F006FC002002F003FC7A2002F000FC88
:103BB000002002F0FDFB8B2002F0FAFB002002F057
:103BC000F7FB992002F0F4FB002002F0F1FBA820A3
:103BD00002F0EEFB002002F0EBFBB92002F0E8FB64
:103BE000002002F0E5FBC42002F0E2FB002002F01E
:103BF000DFFBCA2002F0DCFB002002F0D9FBD22060
:103C000002F0D6FB002002F0D3FBD92002F0D0FB5B
:103C1000002002F0CDFBE02002F0CAFB002002F001
:103C2000C7FBF32002F0C4FB002002F0C1FBE1203F
:103C300002F0CAFB162002F0BBFB002002F0B8FB2A
:103C40001C2002F0B5FB002002F0B2FB222002F0A3
:103C5000AFFB002002F0ACFB362002F0A9FB0020F5
:103C600002F0A6FB452002F0A3FB002002F0A0FB1F
:103C7000522002F09DFB002002F09AFB642002F02B
:103C800097FB002002F094FB7A2002F091FB0020C9
:103C900002F08EFB8B2002F08BFB002002F088FBF1
:103CA000992002F085FB002002F082FBA82002F0A0
:103CB0007FFB002002F07CFBB92002F079FB0020A2
:103CC00002F076FBC42002F073FB002002F070FBD0
:103CD000CA2002F06DFB002002F06AFBD22002F045
:103CE00067FB002002F064FBD82002F061FB00209B
:103CF00002F05EFBE02002F05BFB002002F058FBCC
:103D0000F32002F055FB002002F052FBE22002F00B
:103D10005BFB052002F04CFB002002F049FB0B206E
:103D200002F046FB002002F043FB1B2002F040FBA8
:103D3000002002F03DFB342002F03AFB002002F0AC
:103D400037FB442002F034FB002002F031FB4F200F
:103D500002F02EFB002002F02BFB612002F028FB7A
:103D6000002002F025FB792002F022FB002002F067
:103D70001FFB882002F01CFB002002F019FB97209B
:103D800002F016FB002002F013FBA62002F010FB4D
:103D9000002002F00DFBB72002F00AFB002002F029
:103DA00007FBC22002F004FB002002F001FBC72049
:103DB00002F0FEFA002002F0FBFAD12002F0F8FA3D
:103DC000002002F0F5FAD62002F0F2FA002002F00C
:103DD000EFFADD2002F0ECFA002002F0E9FAF3201D
:103DE00002F0E6FA002002F0E3FAE32002F0ECFA37
:103DF000052002F0DDFA002002F0DAFA0A2002F0D3
:103E0000D7FA002002F0D4FA1C2002F0D1FA0020E8
:103E100002F0CEFA332002F0CBFA002002F0C8FA0A
:103E2000442002F0C5FA002002F0C2FA502002F04D
:103E3000BFFA002002F0BCFA622002F0B9FA0020BA
:103E400002F0B6FA782002F0B3FA002002F0B0FADD
:103E5000882002F0ADFA002002F0AAFA972002F0C2
:103E6000A7FA002002F0A4FAA62002F0A1FA00208E
:103E700002F09EFAB72002F09BFA002002F098FAB6
:103E8000C22002F095FA002002F092FAC72002F058
:103E90008FFA002002F08CFAD12002F089FA00207B
:103EA00002F086FAD52002F083FA002002F080FAB0
:103EB000DD2002F07DFA002002F07AFAF32002F011
:103EC00077FA002002F074FAE42002F07DFA012073
:103ED00002F06EFA002002F06BFA012002F068FA9C
:103EE000002002F065FA022002F062FA002002F0DF
:103EF0005FFA2A2002F05CFA002002F059FA3C2016
:103F000002F056FA002002F053FA4B2002F050FA69
:103F1000002002F04DFA5D2002F04AFA002002F083
:103F200047FA742002F044FA002002F041FA84209B
:103F300002F03EFA002002F03BFA932002F038FA39
:103F4000002002F035FAA22002F032FA002002F03E
:103F50002FFAB32002F02CFA002002F029FABE203A
:103F600002F026FA002002F023FAC42002F020FA20
:103F7000002002F01DFACD2002F01AFA002002F013
:103F800017FAD32002F014FA002002F011FADD2013
:103F900002F00EFA002002F00BFAF32002F008FA09
:103FA000002002F005FAE52002F00EFA002002F0EF
:103FB000FFF9002002F0FCF9002002F0F9F90020DE
:103FC00002F0F6F9022002F0F3F9002002F0F0F915
:103FD000292002F0EDF9002002F0EAF93C2002F07D
:103FE000E7F9002002F0E4F94B2002F0E1F90020AB
:103FF00002F0DEF95D2002F0DBF9002002F0D8F9D2
:10400000742002F0D5F9002002F0D2F9842002F0E9
:10401000CFF9002002F0CCF9932002F0C9F900207A
:1040200002F0C6F9A22002F0C3F9002002F0C0F9A4
:10403000B32002F0BDF9002002F0BAF9BE2002F070
:10404000B7F9002002F0B4F9C42002F0B1F9002061
:1040500002F0AEF9CD2002F0ABF9002002F0A8F991
:10406000D32002F0A5F9002002F0A2F9DC2002F032
:104070009FF9002002F09CF9F32002F099F900204A
:1040800002F096F9E62002F09FF9112002F090F973
:10409000002002F08DF9342002F08AF9002002F0AD
:1040A00087F9562002F084F9002002F081F9762089
:1040B00002F07EF9002002F07BF9772002F078F917
:1040C000002002F075F9662002F072F9002002F07B
:1040D0006FF9882002F06CF9002002F069F999204C
:1040E00002F066F9002002F063F9BB2002F060F9EB
:1040F000002002F05DF9992002F05AF9002002F048
:1041000057F9662002F054F9002002F051F95520C9
:1041100002F04EF9002002F04BF9552002F048F968
:10412000002002F045F9452002F042F9002002F09B
:104130003FF9432002F03CF9002002F039F9442015
:1041400002F036F9002002F033F9E72002F03CF9E2
:10415000322002F02DF9002002F02AF9552002F059
:1041600027F9002002F024F9762002F021F900203E
:1041700002F01EF9662002F01BF9002002F018F987
:10418000672002F015F9002002F012F9672002F012
:104190000FF9002002F00CF9872002F009F9002045
:1041A00002F006F9992002F003F9002002F000F96C
:1041B000BB2002F0FDF8002002F0FAF8992002F08E
:1041C000F7F8002002F0F4F8772002F0F1F8002070
:1041D00002F0EEF8442002F0EBF8002002F0E8F8DC
:1041E000562002F0E5F8002002F0E2F8232002F069
:1041F000DFF8002002F0DCF8332002F0D9F80020CC
:1042000002F0D6F8452002F0D3F8002002F0D0F8F2
:10421000E82002F0D9F8002002F0CAF8002002F0ED
:10422000C7F8992002F0C4F8002002F0C1F88720F6
:1042300002F0BEF8002002F0BBF8882002F0B8F8C7
:10424000002002F0B5F8772002F0B2F8002002F06A
:10425000AFF8662002F0ACF8002002F0A9F8882040
:1042600002F0A6F8002002F0A3F8AA2002F0A0F8BD
:10427000002002F09DF8BB2002F09AF8002002F026
:1042800097F8992002F094F8002002F091F8662047
:1042900002F08EF8002002F08BF8552002F088F82A
:1042A000002002F085F8552002F082F8002002F08C
:1042B0007FF8442002F07CF8002002F079F84420D6
:1042C00002F076F8002002F073F8552002F070F842
:1042D000002002F06DF8E92002F076F8AA2002F042
:1042E00067F8002002F064F8002002F061F8002076
:1042F00002F05EF8002002F067F8AA2002F058F8F9
:10430000CF2002F061F8002002F052F8002002F005
:104310004FF8002002F04CF8002002F049F800208D
:1043200002F046F8002002F043F8002002F040F8C6
:10433000002002F03DF8002002F03AF8002002F0E0
:1043400037F8002002F034F8002002F031F80020A5
:1043500002F02EF8002002F02BF8002002F028F8DE
:10436000002002F025F8002002F022F8F02002F0F0
:104370002BF8002002F01CF8502002F019F8002061
:1043800002F016F8002002F013F8002002F010F8F6
:10439000F32002F019F8002002F00AF8F92002F0E8
:1043A00013F8062002F004F8102002F001F829208A
:1043B00001F0FEFF002001F0FBFF3A2002F004F8BC
:1043C000552001F0F5FF112001F0FEFF6420FEF7FB
:1043D00049FB292001F0F8FF352001F0F5FF00200E
:1043E00001F0E6FF512001F0EFFFFF2001F0E0FFB8
:1043F000532001F0E9FF2C2001F0DAFF552001F0F5
:10440000E3FF822001F0D4FF2C2001F0DDFF10BD7E
:1044100010B555214FF4704001F0ECFFAA214FF286
:10442000010001F0E7FF52214FF2020001F0E2FF2C
:1044300008214FF2030001F0DDFF01214FF20400DB
:1044400001F0D8FF0D214FF4304001F0D3FF0D21D2
:104450004BF2010001F0CEFF0D214BF2020001F002
:10446000C9FF34214FF4364001F0C4FF34214BF230
:10447000016001F0BFFF34214BF2026001F0BAFF8E
:104480000D214FF4314001F0B5FF0D214BF2011029
:1044900001F0B0FF0D214BF2021001F0ABFF34210F
:1044A0004FF4374001F0A6FF34214BF2017001F0C8
:1044B000A1FF34214BF2027001F09CFF00214FF468
:1044C000324001F097FF00214BF2012001F092FFF2
:1044D00000214BF2022001F08DFF24214FF43840DF
:1044E00001F088FF24214BF6010001F083FF242115
:1044F0004BF6020001F07EFF01214FF43F4001F036
:1045000079FF0F214FF4334001F074FF0F214BF27C
:10451000013001F06FFF0F214BF2023001F06AFF12
:1045200034214FF4394001F065FF34214BF601107E
:1045300001F060FF34214BF6021001F05BFF08210F
:104540004FF4354001F056FF08214BF2015001F0C5
:1045500051FF08214BF2025001F04CFF03214FF4B0
:10456000424001F047FF24214FF43A4001F042FF5E
:1045700024214BF6012001F03DFF24214BF60220BF
:1045800001F038FF00214FF43C4001F033FF782167
:104590004BF6014001F02EFF00214BF6024001F0E6
:1045A00029FF00214FF43D4001F024FF78214BF614
:1045B000015001F01FFF00214BF6025001F01AFFDD
:1045C00000214FF43E4001F015FF64214BF60160DD
:1045D00001F010FF00214FF4514001F00BFF332197
:1045E0004DF2011001F006FF00214DF2021001F022
:1045F00001FF34214DF2031001F0FCFE00214DF2C9
:10460000041001F0F7FE3A214DF2051001F0F2FE20
:1046100000214DF2061001F0EDFE4A214DF2071087
:1046200001F0E8FE00214DF2081001F0E3FE5C21EC
:104630004DF2091001F0DEFE00214DF20A1001F0EA
:10464000D9FE81214DF20B1001F0D4FE00214DF274
:104650000C1001F0CFFEA6214DF20D1001F0CAFEA4
:1046600000214DF20E1001F0C5FEE5214DF20F10B4
:1046700001F0C0FE01214DF2101001F0BBFE13212C
:104680004DF2111001F0B6FE01214DF2121001F0B1
:10469000B1FE54214DF2131001F0ACFE01214DF298
:1046A000141001F0A7FE82214DF2151001F0A2FEB8
:1046B00001214DF2161001F09DFECA214DF2171096
:1046C00001F098FE02214DF2181001F093FE002136
:1046D0004DF2191001F08EFE02214DF21A1001F078
:1046E00089FE01214DF21B1001F084FE02214DF2E2
:1046F0001C1001F07FFE34214DF21D1001F07AFEF6
:1047000002214DF21E1001F075FE67214DF21F10BF
:1047100001F070FE02214DF2201001F06BFE8421A9
:104720004DF2211001F066FE02214DF2221001F03F
:1047300061FEA4214DF2231001F05CFE02214DF236
:10474000241001F057FEB7214DF2251001F052FE62
:1047500002214DF2261001F04DFECF214DF227101F
:1047600001F048FE02214DF2281001F043FEDE2147
:104770004DF2291001F03EFE02214DF22A1001F007
:1047800039FEF2214DF22B1001F034FE02214DF2E0
:104790002C1001F02FFEFE214DF22D1001F02AFE0B
:1047A00003214DF22E1001F025FE10214DF22F10A5
:1047B00001F020FE03214DF2301001F01BFE3321E9
:1047C0004DF2311001F016FE03214DF2321001F0CE
:1047D00011FE6D214DF2331001F00CFE00214FF45B
:1047E000524001F007FE33214DF2012001F002FE9C
:1047F00000214DF2022001F0FDFD34214DF2032095
:1048000001F0F8FD00214DF2042001F0F3FD3A2102
:104810004DF2052001F0EEFD00214DF2062001F0E1
:10482000E9FD4A214DF2072001F0E4FD00214DF29F
:10483000082001F0DFFD5C214DF2092001F0DAFDD6
:1048400000214DF20A2001F0D5FD81214DF20B200F
:1048500001F0D0FD00214DF20C2001F0CBFDA6218E
:104860004DF20D2001F0C6FD00214DF20E2001F0A9
:10487000C1FDE5214DF20F2001F0BCFD01214DF2FB
:10488000102001F0B7FD13214DF2112001F0B2FD0F
:1048900001214DF2122001F0ADFD54214DF2132003
:1048A00001F0A8FD01214DF2142001F0A3FD8221A9
:1048B0004DF2152001F09EFD01214DF2162001F070
:1048C00099FDCA214DF2172001F094FD02214DF20D
:1048D000182001F08FFD00214DF2192001F08AFD12
:1048E00002214DF21A2001F085FD01214DF21B201D
:1048F00001F080FD02214DF21C2001F07BFD3421EE
:104900004DF21D2001F076FD02214DF21E2001F036
:1049100071FD67214DF21F2001F06CFD02214DF267
:10492000202001F067FD84214DF2212001F062FD7D
:1049300002214DF2222001F05DFDA4214DF2232041
:1049400001F058FD02214DF2242001F053FDB72162
:104950004DF2252001F04EFD02214DF2262001F0FE
:1049600049FDCF214DF2272001F044FD02214DF2F7
:10497000282001F03FFDDE214DF2292001F03AFD13
:1049800002214DF22A2001F035FDF2214DF22B20BB
:1049900001F030FD02214DF22C2001F02BFDFE2113
:1049A0004DF22D2001F026FD03214DF22E2001F0C5
:1049B00021FD10214DF22F2001F01CFD03214DF2AD
:1049C000302001F017FD33214DF2312001F012FDAE
:1049D00003214DF2322001F00DFD6D214DF2332007
:1049E00001F008FD00214FF4534001F003FD332195
:1049F0004DF2013001F0FEFC00214DF2023001F0D9
:104A0000F9FC34214DF2033001F0F4FC00214DF2A9
:104A1000043001F0EFFC3A214DF2053001F0EAFCE0
:104A200000214DF2063001F0E5FC4A214DF207303D
:104A300001F0E0FC00214DF2083001F0DBFC5C21CC
:104A40004DF2093001F0D6FC00214DF20A3001F0A0
:104A5000D1FC81214DF20B3001F0CCFC00214DF254
:104A60000C3001F0C7FCA6214DF20D3001F0C2FC64
:104A700000214DF20E3001F0BDFCE5214DF20F306A
:104A800001F0B8FC01214DF2103001F0B3FC13210C
:104A90004DF2113001F0AEFC01214DF2123001F067
:104AA000A9FC54214DF2133001F0A4FC01214DF278
:104AB000143001F09FFC82214DF2153001F09AFC78
:104AC00001214DF2163001F095FCCA214DF217304C
:104AD00001F090FC02214DF2183001F08BFC002116
:104AE0004DF2193001F086FC02214DF21A3001F02E
:104AF00081FC01214DF21B3001F07CFC02214DF2C2
:104B00001C3001F077FC34214DF21D3001F072FCB5
:104B100002214DF21E3001F06DFC67214DF21F3075
:104B200001F068FC02214DF2203001F063FC842189
:104B30004DF2213001F05EFC02214DF2223001F0F5
:104B400059FCA4214DF2233001F054FC02214DF216
:104B5000243001F04FFCB7214DF2253001F04AFC22
:104B600002214DF2263001F045FCCF214DF22730D5
:104B700001F040FC02214DF2283001F03BFCDE2127
:104B80004DF2293001F036FC02214DF22A3001F0BD
:104B900031FCF2214DF22B3001F02CFC02214DF2C0
:104BA0002C3001F027FCFE214DF22D3001F022FCCB
:104BB00003214DF22E3001F01DFC10214DF22F305B
:104BC00001F018FC03214DF2303001F013FC3321C9
:104BD0004DF2313001F00EFC03214DF2323001F084
:104BE00009FC6D214DF2333001F004FC00214FF43B
:104BF000544001F0FFFB33214DF2014001F0FAFB7C
:104C000000214DF2024001F0F5FB34214DF203404A
:104C100001F0F0FB00214DF2044001F0EBFB3A21E2
:104C20004DF2054001F0E6FB00214DF2064001F097
:104C3000E1FB4A214DF2074001F0DCFB00214DF27F
:104C4000084001F0D7FB5C214DF2094001F0D2FB96
:104C500000214DF20A4001F0CDFB81214DF20B40C5
:104C600001F0C8FB00214DF20C4001F0C3FBA6216E
:104C70004DF20D4001F0BEFB00214DF20E4001F05F
:104C8000B9FBE5214DF20F4001F0B4FB01214DF2DB
:104C9000104001F0AFFB13214DF2114001F0AAFBCF
:104CA00001214DF2124001F0A5FB54214DF21340B9
:104CB00001F0A0FB01214DF2144001F09BFB822189
:104CC0004DF2154001F096FB01214DF2164001F026
:104CD00091FBCA214DF2174001F08CFB02214DF2ED
:104CE000184001F087FB00214DF2194001F082FBD2
:104CF00002214DF21A4001F07DFB01214DF21B40D3
:104D000001F078FB02214DF21C4001F073FB3421CD
:104D10004DF21D4001F06EFB02214DF21E4001F0EC
:104D200069FB67214DF21F4001F064FB02214DF247
:104D3000204001F05FFB84214DF2214001F05AFB3D
:104D400002214DF2224001F055FBA4214DF22340F7
:104D500001F050FB02214DF2244001F04BFBB72142
:104D60004DF2254001F046FB02214DF2264001F0B4
:104D700041FBCF214DF2274001F03CFB02214DF2D7
:104D8000284001F037FBDE214DF2294001F032FBD3
:104D900002214DF22A4001F02DFBF2214DF22B4071
:104DA00001F028FB02214DF22C4001F023FBFE21F3
:104DB0004DF22D4001F01EFB03214DF22E4001F07B
:104DC00019FB10214DF22F4001F014FB03214DF28D
:104DD000304001F00FFB33214DF2314001F00AFB6E
:104DE00003214DF2324001F005FB6D214DF23340BD
:104DF00001F000FB00214FF4554001F0FBFA332194
:104E00004DF2015001F0F6FA00214DF2025001F08E
:104E1000F1FA34214DF2035001F0ECFA00214DF289
:104E2000045001F0E7FA3A214DF2055001F0E2FAA0
:104E300000214DF2065001F0DDFA4A214DF20750F3
:104E400001F0D8FA00214DF2085001F0D3FA5C21AC
:104E50004DF2095001F0CEFA00214DF20A5001F056
:104E6000C9FA81214DF20B5001F0C4FA00214DF234
:104E70000C5001F0BFFAA6214DF20D5001F0BAFA24
:104E800000214DF20E5001F0B5FAE5214DF20F5020
:104E900001F0B0FA01214DF2105001F0ABFA1321EC
:104EA0004DF2115001F0A6FA01214DF2125001F01D
:104EB000A1FA54214DF2135001F09CFA01214DF258
:104EC000145001F097FA82214DF2155001F092FA38
:104ED00001214DF2165001F08DFACA214DF2175002
:104EE00001F088FA02214DF2185001F083FA0021F6
:104EF0004DF2195001F07EFA02214DF21A5001F0E4
:104F000079FA01214DF21B5001F074FA02214DF2A1
:104F10001C5001F06FFA34214DF21D5001F06AFA75
:104F200002214DF21E5001F065FA67214DF21F502B
:104F300001F060FA02214DF2205001F05BFA842169
:104F40004DF2215001F056FA02214DF2225001F0AB
:104F500051FAA4214DF2235001F04CFA02214DF2F6
:104F6000245001F047FAB7214DF2255001F042FAE2
:104F700002214DF2265001F03DFACF214DF227508B
:104F800001F038FA02214DF2285001F033FADE2107
:104F90004DF2295001F02EFA02214DF22A5001F073
:104FA00029FAF2214DF22B5001F024FA02214DF2A0
:104FB0002C5001F01FFAFE214DF22D5001F01AFA8B
:104FC00003214DF22E5001F015FA10214DF22F5011
:104FD00001F010FA03214DF2305001F00BFA3321A9
:104FE0004DF2315001F006FA03214DF2325001F03A
:104FF00001FA6D214DF2335001F0FCF900214FF41C
:10500000564001F0F7F933214DF2016001F0F2F959
:1050100000214DF2026001F0EDF934214DF2036000
:1050200001F0E8F900214DF2046001F0E3F93A21C2
:105030004DF2056001F0DEF900214DF2066001F04D
:10504000D9F94A214DF2076001F0D4F900214DF25F
:10505000086001F0CFF95C214DF2096001F0CAF956
:1050600000214DF20A6001F0C5F981214DF20B607B
:1050700001F0C0F900214DF20C6001F0BBF9A6214E
:105080004DF20D6001F0B6F900214DF20E6001F015
:10509000B1F9E5214DF20F6001F0ACF901214DF2BB
:1050A000106001F0A7F913214DF2116001F0A2F98F
:1050B00001214DF2126001F09DF954214DF213606F
:1050C00001F098F901214DF2146001F093F9822169
:1050D0004DF2156001F08EF901214DF2166001F0DC
:1050E00089F9CA214DF2176001F084F902214DF2CD
:1050F000186001F07FF900214DF2196001F07AF992
:1051000002214DF21A6001F075F901214DF21B6088
:1051100001F070F902214DF21C6001F06BF93421AD
:105120004DF21D6001F066F902214DF21E6001F0A2
:1051300061F967214DF21F6001F05CF902214DF227
:10514000206001F057F984214DF2216001F052F9FD
:1051500002214DF2226001F04DF9A4214DF22360AD
:1051600001F048F902214DF2246001F043F9B72122
:105170004DF2256001F03EF902214DF2266001F06A
:1051800039F9CF214DF2276001F034F902214DF2B7
:10519000286001F02FF9DE214DF2296001F02AF993
:1051A00002214DF22A6001F025F9F2214DF22B6027
:1051B00001F020F902214DF22C6001F01BF9FE21D3
:1051C0004DF22D6001F016F903214DF22E6001F031
:1051D00011F910214DF22F6001F00CF903214DF26D
:1051E000306001F007F933214DF2316001F002F92E
:1051F00003214DF2326001F0FDF86D214DF2336074
:1052000001F0F8F855214FF4704001F0F3F8AA21AD
:105210004FF2010001F0EEF852214FF2020001F0CE
:10522000E9F808214FF2030001F0E4F800214FF201
:10523000040001F0DFF8CC214FF4314001F0DAF83E
:1052400000214BF2011001F0D5F805214FF4364052
:1052500001F0D0F870214FF4374001F0CBF8702105
:105260004BF2017001F0C6F801214FF4384001F013
:10527000C1F803214BF6010001F0BCF803214BF605
:10528000020001F0B7F803214BF6030001F0B2F879
:1052900002214FF43C4001F0ADF800214BF60140F3
:1052A00001F0A8F800214BF6024001F0A3F8D0214C
:1052B0004FF4494001F09EF802214CF6011001F034
:1052C00099F850214CF6021001F094F850214CF658
:1052D000031001F08FF850214CF6041001F08AF809
:1052E00000214FF4545001F085F855214FF46850D7
:1052F00001F080F84FF4885001F066F87820FDF74F
:10530000BDFB4FF4245001F05FF810BD10B5E22052
:1053100001F05AF81D2001F04BF8022001F048F886
:10532000042001F045F86420FDF7A8FBE02001F01F
:105330004BF8012001F03CF80A20FDF793FBE02038
:1053400001F042F8032001F033F80C20FDF78AFB4E
:10535000012001F039F80A20FDF784FBE62001F076
:1053600033F82F2001F024F8FF2001F021F8FF206E
:1053700001F01EF8B02001F027F8202001F018F805
:10538000002001F015F8032001F012F840F21F3060
:1053900001F00EF8012001F00BF840F2DF1001F0EF
:1053A00007F8002001F004F8B42001F00DF8042003
:1053B00000F0FEFF40F21F4000F0FAFF002000F076
:1053C000F7FF2E2000F0F4FF002000F0F1FF002096
:1053D00000F0EEFF002000F0EBFF002000F0E8FFFF
:1053E000B62000F0F1FF022000F0E2FF4FF403705E
:1053F00000F0DEFF002000F0DBFF172000F0D8FFF8
:10540000152000F0D5FF002000F0D2FF002000F0B2
:10541000CFFFF02000F0D8FF032000F0C9FF2920C3
:1054200000F0D2FFD02000F0CFFF002000F0C0FF3E
:10543000BE2000F0C9FF052000F0BAFFFE2000F0FA
:10544000B7FF012000F0B4FF002000F0B1FF002002
:1054500000F0AEFF002000F0ABFFB82000F0B4FF7A
:10546000032000F0A5FF012000F0A2FFBA2000F009
:10547000ABFF012000F09CFF10BD10B5112000F023
:10548000A3FF7820FDF7EEFA362000F09DFF002004
:1054900000F08EFF3A2000F097FF052000F088FF13
:1054A000B22000F091FF0C2000F082FF0C2000F0F1
:1054B0007FFF002000F07CFF332000F079FF3320D5
:1054C00000F076FFB72000F07FFF352000F070FF7E
:1054D000BB2000F079FF322000F06AFFC02000F00E
:1054E00073FF0C2000F064FFC22000F06DFF01206C
:1054F00000F05EFFC32000F067FF102000F058FFAF
:10550000C42000F061FF202000F052FFC62000F010
:105510005BFF0F2000F04CFFD02000F055FFA420CF
:1055200000F046FFA12000F043FFE02000F04CFF18
:10553000D02000F03DFF002000F03AFF022000F0F4
:1055400037FF072000F034FF0A2000F031FF282049
:1055500000F02EFF322000F02BFF442000F028FF47
:10556000422000F025FF062000F022FF0E2000F070
:105570001FFF122000F01CFF142000F019FF17205D
:1055800000F016FFE12000F01FFFD02000F010FF18
:10559000002000F00DFF022000F00AFF072000F0BD
:1055A00007FF0A2000F004FF282000F001FF31204F
:1055B00000F0FEFE542000F0FBFE472000F0F8FE55
:1055C0000E2000F0F5FE1C2000F0F2FE172000F087
:1055D000EFFE1B2000F0ECFE1E2000F0E9FE2A206A
:1055E00000F0F2FE002000F0E3FE002000F0E0FEFC
:1055F000002000F0DDFEEF2000F0DAFE2B2000F0AE
:10560000E3FE002000F0D4FE002000F0D1FE0120D7
:1056100000F0CEFE3F2000F0CBFE292000F0D4FEAB
:1056200010BD10B5112000F0CFFE7820FDF71AFA5A
:10563000362000F0C9FE482000F0BAFE3A2000F003
:10564000C3FE552000F0B4FEF02000F0BDFEC320E4
:1056500000F0AEFEF02000F0B7FE962000F0A8FEAD
:10566000B42000F0B1FE012000F0A2FEB62000F050
:10567000ABFE0A2000F09CFEA22000F099FEB720AD
:1056800000F0A2FEC62000F093FEB92000F09CFEC0
:10569000022000F08DFEE02000F08AFEC02000F025
:1056A00093FE802000F084FE162000F081FEC120D1
:1056B00000F08AFE192000F07BFEC22000F084FE7C
:1056C000A72000F075FEC52000F07EFE162000F039
:1056D0006FFEE82000F078FE402000F069FE8A208E
:1056E00000F066FE002000F063FE002000F060FE87
:1056F000292000F05DFE192000F05AFEA52000F0E0
:1057000057FE332000F054FEE02000F05DFEF02054
:1057100000F04EFE072000F04BFE0D2000F048FE8A
:10572000042000F045FE052000F042FE142000F0A9
:105730003FFE362000F03CFE542000F039FE4C20A5
:1057400000F036FE382000F033FE132000F030FE6B
:10575000142000F02DFE2E2000F02AFE342000F050
:1057600027FEE12000F030FEF02000F021FE1020A6
:1057700000F01EFE142000F01BFE0E2000F018FEAC
:105780000C2000F015FE082000F012FE352000F07D
:105790000FFE442000F00CFE4C2000F009FE2620F5
:1057A00000F006FE102000F003FE122000F000FEC4
:1057B0002C2000F0FDFD322000F0FAFDF02000F07A
:1057C00003FE3C2000F0F4FDF02000F0FDFD692018
:1057D00000F0EEFD7820FDF745F9212000F0F4FD02
:1057E000292000F0F1FD10BD2DE9F04F05460E46D1
:1057F00017469846DDF824A04FF0000B781B401C9C
:105800001FFA80FB344613E02146284600F0DEFBF9
:1058100000F0E6FD4FF0000906E00749A1F800A0FE
:1058200009F101001FFA80F9D945F6DB601C84B24A
:105830004445E9DDBDE8F08F0008006C2DE9F04F2C
:105840000746884616469A4640F2C32070434FF4F6
:105850007A71B0FBF1F000F1010906FB06F000EBF4
:10586000560B344671040A0CB91B88B253464146A4
:10587000FDF7F8FA012535E005FB05F004FB04000F
:1058800058451AD94C4517D96B1E5B041A0C08EB06
:10589000040399B27B1B5B1C98B25346FDF7E2FAF6
:1058A0006B1E5B041A0CA8EB040399B27B1B5B1CF8
:1058B00098B25346FDF7D6FA641E63041A0C08EB3F
:1058C000050399B23B1B98B25346FDF7CBFA63042C
:1058D0001A0CA8EB050399B23B1B98B25346FDF78F
:1058E000C1FA6D1C4D45C7D9BDE8F08F00B593B026
:1058F00000BF00BFF948806940F48070F7498861B3
:105900000846806900F48070009000BF00BF00BFAF
:1059100000BF00BF0846806940F02000886108464B
:10592000806900F02000009000BF00BF00BF00BFF2
:1059300000BF0846806940F0200088610846806901
:1059400000F02000009000BF00BF00BF00BF00BFFC
:105950000846806940F4807088610846806900F4D8
:105960008070009000BF00BF00BF00BF00BF0846AE
:10597000806940F0080088610846806900F00800EE
:10598000009000BF00BF00BF88140F90022010904D
:1059900001201190032012900FA9D148FBF734FC8D
:1059A00020200F900FA9CF48FBF72EFC10200F905E
:1059B0000FA9CC48FBF728FC01200F900FA9C8487D
:1059C000FBF722FC01200F9010900FA9C648FBF7AF
:1059D0001BFC4FF02040C5490860C54848600620C0
:1059E00088600021C148C1601021416100218161AE
:1059F000C16141624FF4805181620021C1624FF464
:105A00008041016300214163816300200890099077
:105A10000F200A9000200E90019002900120039028
:105A20000020079001AA08A9B048FCF7EFFA32203D
:105A3000FDF718F8D32000F0C7FC00F09DF9AD4940
:105A4000888000F099F9AB49888000F095F9A94960
:105A50008880084680884FF6FF7101EA0020A5493A
:105A6000888000F089F9A34989880843A149888082
:105A70000846808849F2413188427CD0042000F0F9
:105A8000A3FC00F079F99B49888000F075F99949E9
:105A9000888000F071F997498880084680884FF621
:105AA000FF7101EA00209349888000F065F991496F
:105AB000898808438F4988800846808848F2525177
:105AC000884203D147F289708A4988808948808852
:105AD00047F289718842D0D0D42000F075FC00F0E4
