:020000040800F2
:1000000030B4002079020008B7260008AF260008A7
:10001000B3260008710800086929000800000000E4
:10002000000000000000000000000000E1010008E6
:10003000750800080000000025020008E1260008FD
:10004000930200089302000893020008930200083C
:10005000930200089302000893020008930200082C
:10006000930200089302000893020008930200081C
:10007000930200089302000893020008930200080C
:1000800093020008930200089302000893020008FC
:1000900093020008930200089302000893020008EC
:1000A00093020008930200089302000893020008DC
:1000B00093020008930200089302000893020008CC
:1000C00093020008930200089302000893020008BC
:1000D00093020008592900089302000893020008BF
:1000E000930200089302000893020008930200089C
:1000F000930200089302000893020008930200088C
:10010000930200089302000893020008930200087B
:100110009302000893020008F926000893020008E1
:10012000930200089302000893020008930200085B
:1001300000F002F800F045F80AA090E8000C8244B4
:100140008344AAF10107DA4501D100F03AF8AFF291
:10015000090EBAE80F0013F0010F18BFFB1A43F0A5
:100160000103184778BD000098BD0000103A24BF75
:1001700078C878C1FAD8520724BF30C830C144BF0C
:1001800004680C607047000000230024002500264E
:10019000103A28BF78C1FBD8520728BF30C148BFEA
:1001A0000B607047642900F0F380782900F02C81FF
:1001B000732900F05182002070471FB51FBD10B594
:1001C00010BD00F0B7FA1146FFF7F7FF06F0D8F8B8
:1001D00000F0D5FA03B4FFF7F2FF03BC02F0E2FB34
:1001E000224B19680868B0E8F00F80F30988BFF364
:1001F0006F8F4FF0000080F311884EF00D0E7047A6
:100200000000000006480068006880F3088862B6B5
:1002100061B6BFF34F8FBFF36F8F00DF00BF00BF2A
:1002200008ED00E0EFF30980BFF36F8F0F4B1A6802
:1002300020E9F00F106008B54FF0500080F31188EE
:10024000BFF34F8FBFF36F8F07F09EFE4FF000009C
:1002500080F31188BDE8084019680868B0E8F00F1D
:1002600080F30988BFF36F8F704700BF58000020EC
:10027000EFF30580704700000948804709480047B0
:10028000FEE7FEE7FEE7FEE7FEE7FEE7FEE7FEE746
:10029000FEE7FEE704480549054A064B70470000A3
:1002A000F52600083101000830AE002030B40020EF
:1002B00030B0002030B00020704700000FB4044977
:1002C00010B503AA029800F0CBF910BC5DF814FB3E
:1002D0001C0000202DE9F0410E460446002020625B
:1002E0002046E168884730B3252805D0D4E90121AC
:1002F0009047206A401CF2E7E168204600278847C3
:10030000050018D0A5F14100192802D820354FF476
:1003100000673246294620462760FFF743FF40B179
:10032000012804D0F61D26F007060836D8E7361D4A
:10033000D6E72846DAE7206ABDE8F08170B50C46BA
:100340000546012A05D02878800600D5EA690023F1
:1003500002E0012305E05B1C934202D2E05C00282E
:10036000F9D1A869E618C01AA861286A1844286259
:100370002846AFF3008004E0D5E9012114F8010B11
:100380009047B442F8D32846AFF3008070BD000018
:100390002DE9F0410646002410687529314616A55E
:1003A00010D0AFF30080002802DA404213A507E026
:1003B00031688A0701D512A502E0490704D511A5C5
:1003C000012401E0AFF3008000210A2206F1240796
:1003D00009E0B0FBF2FCB0FBF2F302FB1C00303092
:1003E00078541846491C0028F3D123462A46304643
:1003F000BDE8F04100F0ACB8000000002D000000A6
:100400002B0000002000000070B504460D46214678
:100410001068AFF300802188090502D50F4A7A449D
:1004200002E00E4A7A440E32002104F1240305E072
:1004300000F00F060009965D5E54491C0028F7D1B4
:1004400020780023000704D5702D02D009B10223C3
:1004500011322046BDE8704000F07AB892BA000030
:10046000032A40F2308010F0030C00F0158011F8E0
:10047000013BBCF1020F624498BF11F801CB00F8B8
:10048000013B38BF11F8013BA2F1040298BF00F80C
:1004900001CB38BF00F8013B11F0030300F0F280FC
:1004A000083AC0F0088051F8043B083A51F804CBF0
:1004B000A0E80810F5E7121D5CBF51F8043B40F8B6
:1004C000043BAFF30080D20724BF11F8013B11F8C1
:1004D00001CB48BF11F8012B24BF00F8013B00F805
:1004E00001CB48BF00F8012B704702F0FF0343EA3D
:1004F000032242EA024200F0F9B84FF0000200B5D0
:10050000134694469646203922BFA0E80C50A0E836
:100510000C50B1F12001BFF4F7AF090728BFA0E8E4
:100520000C5048BF0CC05DF804EB890028BF40F8B0
:10053000042B08BF704748BF20F8022B11F0804FF2
:1005400018BF00F8012B704770477047704770471D
:100550002DE9F0470D4699469246044600F12408DD
:100560000168880604D5E06921F01001216000E0EF
:100570000120A84201DD471B00E00027A1697A198C
:1005800002EB0900081AA0612078C00602D42046B8
:10059000AFF30080002608E0D4E901211AF8060034
:1005A0009047206A401C761C20624E45F4DB207880
:1005B000C0060AD52046AFF3008006E0D4E9012149
:1005C00030209047206A401C2062381EA7F10107A6
:1005D000F4DC07E0D4E9012118F805009047206A0F
:1005E000401C2062281EA5F10105F3DC2046AFF374
:1005F00000802078000602D50220BDE8F0870120A7
:10060000FBE7000001694A1C02610878704700B5E9
:100610008FB0CDE901310021059105497944CDE93B
:10062000031011466846FFF755FE0FB000BD0000ED
:10063000E5FFFFFF10B5436913B1AFF3008001E0A0
:10064000FFF77CFE012010BD127800F124010A7032
:1006500000224A700122EDE711684FF0FF32E9E70E
:10066000074B70B50D467B44FFF7D1FF0446284683
:1006700000F05CF810B14FF0FF3070BD204670BD47
:100680005B24000010B5203AC0F00B80B1E8185090
:10069000203AA0E81850B1E81850A0E81850BFF46C
:1006A000F5AF5FEA027C24BFB1E81850A0E818500B
:1006B00044BF18C918C0BDE810405FEA827C24BF5F
:1006C00051F8043B40F8043B08BF7047D20728BFED
:1006D00031F8023B48BF11F8012B28BF20F8023B3C
:1006E00048BF00F8012B70474FF000020429C0F00A
:1006F000128010F0030C3FF402AFCCF1040CBCF1FB
:10070000020F18BF00F8012BA8BF20F8022BA1EBA5
:100710000C01FFF7F4BE5FEAC17C24BF00F8012B97
:1007200000F8012B48BF00F8012B7047007B00F058
:1007300080007047754600F02BF8AE46050069460C
:10074000534620F00700854618B020B5FFF7A2FDFC
:10075000BDE820404FF000064FF000074FF00008C2
:100760004FF0000B21F00701AC46ACE8C009ACE843
:10077000C009ACE8C009ACE8C0098D46704710B5A7
:100780000446AFF300802046BDE81040FFF722BDCD
:1007900000487047CCAD002070B5044600252068A5
:1007A000806800F00100F0B12068806820F001004E
:1007B0002168886000F0E0FE05460EE000F0DCFEF7
:1007C000401B022809D9A06A40F01000A062E06A2C
:1007D00040F00100E062012070BD2068806800F0F8
:1007E00001000028EAD10020F6E7000038B50446F1
:1007F0000025002000902068806800F0010080BB88
:100800002068806840F00100216888601648006810
:100810001649B0FBF1F0009002E00098401E0090F5
:1008200000980028F9D100F0A7FE054613E000F07B
:10083000A3FE401B02280ED9A06A40F01000A0625F
:10084000E06A40F00100E06200BF002084F824006C
:1008500000BF012038BD2068806800F0010000283A
:10086000E5D00020F6E700000000002040420F0025
:1008700000BFFEE77047000070B50446B3F5804F37
:1008800013D1D1E9000540EA05108D6840EA052042
:100890008D6928438D8940EA054054F82250064E60
:1008A0003540284344F8220003E06FF0704044F8DC
:1008B0002200002070BD00000000F0CF70B502469D
:1008C000086852F8200020F001000E6842F8260067
:1008D0008868082801D1402300E0002348681843B5
:1008E0008E683043CE6830430E6930434E693043E2
:1008F000CE6930430E6A30434E6A30438E6A3043CD
:10090000CE6A30430E6B40EA060488690443486BA4
:100910000443074D45F4806545F4E025086852F826
:100920002000A84320430E6842F82600002070BD36
:100930007FFB080010B50346D1E9000440EA04102B
:100940008C6840EA04208C8940EA0444088A401EEE
:1009500044EA0054087D801E44EA00608C6920430C
:10096000541C53F8244004F040442043541C43F8E2
:100970002400002010BD0000F8B504460026002029
:10098000009000BF94F82400012801D10220F8BD96
:10099000012084F8240000BF2046FFF7FDFE064634
:1009A000002E62D1A06A20F4885040F00200A062BC
:1009B000022000F091FE30490968B1FBF0F04000E0
:1009C000009002E00098401E009000980028F9D1A5
:1009D0002046FFF70BFF2068806840F00800216880
:1009E000886000F0C9FD054611E000F0C5FD401B20
:1009F0000A280CD9A06A20F0020040F01000A06282
:100A000000BF002084F8240000BF0120BFE7206859
:100A1000806800F008000028E7D12068806840F076
:100A200004002168886000F0A7FD054611E000F091
:100A3000A3FD401B0A280CD9A06A20F0020040F058
:100A40001000A06200BF002084F8240000BF012035
:100A50009DE72068806800F004000028E7D1A06AC4
:100A600020F0020040F00100A06200BF002084F8E6
:100A7000240000BF30468AE70000002038B5024657
:100A800000230020009000BF92F82400012801D12B
:100A9000022038BD012082F8240000BF48680728E2
:100AA00012D21068406B0C79641E04EB84051F247D
:100AB000AC40A0430D796D1E05EB85050C68AC407C
:100AC00020431468606327E048680D2812D210683C
:100AD000006B0C79E41F04EB84051F24AC40A04399
:100AE0000D79ED1F05EB85050C68AC4020431468BB
:100AF000206311E01068C06A0C790D3C04EB84059A
:100B00001F24AC40A0430D790D3D05EB85050C6815
:100B1000AC4020431468E06208680A2812D31068C9
:100B2000C0680C780A3C04EB44050724AC40A043A1
:100B30000D780A3D05EB45058C68AC4020431468F0
:100B4000E0600FE0106800690C7804EB44050724AE
:100B5000AC40A0430D7805EB45058C68AC402043C4
:100B6000146820610868102802D00868112827D16D
:100B7000174C1068A0421ED11068806800F4000075
:100B8000F0B91068806840F400001468A06008683C
:100B9000102815D10F4800680F4CB0FBF4F000EBA3
:100BA00080004000009002E00098401E00900098F5
:100BB0000028F9D104E0906A40F0200090620123FF
:100BC00000BF002082F8240000BF184661E7000043
:100BD000002401400000002040420F000146086848
:100BE000C06C70472DE9F04104460027002500261F
:100BF000A84614B90120BDE8F081A06810B1207D9D
:100C000000B100BFA06A30B90020E06284F824007F
:100C1000204600F097F82046FFF7BEFD0746A06A81
:100C200000F01000002873D1002F7ED1A06A20F4BC
:100C3000885040F00200A0623F4AD4E9000190428F
:100C400008D1E069B0F5402F02D14FF4002002E056
:100C5000E06900E0E0690143207B41EA400006438F
:100C6000A068B0F5807F02D0A068012802D14FF4BF
:100C7000807000E000200543207D012811D1207BF9
:100C800038B9A069401E4FF4006141EA4030054385
:100C900007E0A06A40F02000A062E06A40F0010096
:100CA000E0622068406820F4694028432168486079
:100CB0002068806821490840304321688860A06826
:100CC000B0F5807F02D0A068012802D14FF4807077
:100CD00000E00020B0F5807F03D1208A401E4FEA5B
:100CE00000582068C06A20F4700040EA08002168BB
:100CF000C8622068806812490840B04209D10020CB
:100D0000E062A06A20F0020040F00100A06211E061
:100D10000BE0A06A20F0020040F01000A062E06A40
:100D200040F00100E062012704E0A06A40F01000FA
:100D3000A062012738465EE7003C0140FDF7E1FF75
:100D4000FE0E1FFF10B58CB004461A492068884279
:100D50002ED1182102A8FFF7D0FB00BF16488069EA
:100D600040F08000144988610846806900F08000E6
:100D7000019000BF00BF00BF0846806940F40040FA
:100D800088610846806900F40040019000BF00BF00
:100D9000881508900320099008A9084800F034FA43
:100DA000022002908003049002A800F02FFD00BFF3
:100DB0000CB010BD003C014000100240001C01407E
:100DC000F8B504460D46002600200090002700F0EC
:100DD000D3FB06462068806800F4807050B1A06A9A
:100DE00040F02000A06200BF002084F8240000BF73
:100DF0000120F8BD2068406800F48070F8B92068D0
:100E0000C06A00F47000D0B912E0681C80B125B14E
:100E100000F0B2FB801BA8420AD9A06A40F004008F
:100E2000A06200BF002084F8240000BF0320E0E798
:100E30002068006800F002000028E6D050E00220A0
:100E400000F04AFC36490968B1FBF0F021680969F5
:100E5000344A114091B92168C9689211114069B9A9
:100E600021680969304A114031B92168C968921175
:100E7000114009B9142117E0292115E021680969F9
:100E8000294A114021B92168C9689211114041B124
:100E900021680969254A114029B92168C9681140AA
:100EA00009B9542100E0FC2100FB01F715E0681CA2
:100EB00080B125B100F060FB801BA8420AD9A06A6E
:100EC00040F00400A06200BF002084F8240000BFAE
:100ED00003208EE70098401C00900098B842E6D3AB
:100EE0006FF0120021680860A06A40F40070A062F0
:100EF0002068806800F46020B0F5602F0DD1207B61
:100F000058B9A06A20F48070A062A06A00F48050F2
:100F100018B9A06A40F00100A062002069E7000053
:100F2000000000202449922492244912499224006E
:100F300070B50446002500BF94F82400012801D1B3
:100F4000022070BD012084F8240000BF2046FFF776
:100F50004DFC0546002D77D1A06A40F2012188435F
:100F600040F48070A0623C492068884208D13B4828
:100F7000006800F4702008B9012002E0002000E0C1
:100F8000012078B1A06A20F48010A0622068406837
:100F900000F4806000B3A06A20F4005040F4805058
:100FA000A06219E0A06A40F48010A0622B49091FDA
:100FB0002068884203D028492068884204D1274805
:100FC000006800F4806000E0002028B1A06A20F4EE
:100FD000005040F48050A062A06A00F4805020B11C
:100FE000E06A20F00600E06201E00020E06200BF5D
:100FF000002084F8240000BFC01E2168086020681B
:10100000806800F46020B0F5602F16D11249206886
:10101000884208D11148006800F4702008B9012006
:1010200002E0002000E0012038B12068806840F430
:10103000A000216888600CE006E02068806840F429
:1010400080102168886004E000BF002084F824003C
:1010500000BF284675E70000002801400424014035
:1010600070B50446002594F82100022803D004201E
:10107000A0630125C1E02068006820F00E0021680F
:1010800008602068006820F00100216808605C4961
:101090002068884252D95A4978392068884201D15B
:1010A000012047E0564964392068884201D1102068
:1010B00040E0534950392068884201D1801539E019
:1010C0004F493C392068884201D1801432E04C49B4
:1010D00028392068884202D14FF480302AE04849FC
:1010E00014392068884202D14FF4801022E044492C
:1010F0002068884201D140041CE0424920688842AF
:1011000001D1012016E03F4914312068884201D105
:1011100010200FE03B4928312068884201D180151A
:1011200008E038493C312068884201D1801401E050
:101130004FF480303349091F086051E03049783955
:101140002068884201D1012047E02D496439206898
:10115000884201D1102040E0294950392068884256
:1011600001D1801539E026493C392068884201D1F7
:10117000801432E0224928392068884202D14FF495
:1011800080302AE01E4914392068884202D14FF489
:10119000801022E01A492068884201D140041CE0F6
:1011A00018492068884201D1012016E01549143100
:1011B0002068884201D110200FE0124928312068B0
:1011C000884201D1801508E00E493C3120688842F0
:1011D00001D1801401E04FF4803009498039486022
:1011E000012084F8210000BF002084F8200000BF07
:1011F000606B10B12046616B8847284670BD0000C7
:1012000080000240080402402DE9F847024600230E
:101210009C467BE14FF0010808FA03F4D1F8008006
:1012200008EA0400A0427DD1DFF8F4A2D1F80480DE
:10123000A8EB0A09D0453AD014DCB8F1030F50D01E
:1012400009DCB8F1000F31D0B8F1010F1CD0B8F1B2
:10125000020F49D120E0B8F1110F18D0B8F1120FE8
:1012600042D11EE0B9F5881F25D006DCB9F5803FD4
:1012700020D0B9F5801F37D11AE0B9F5001F18D07A
:10128000B9F5041F30D117E0D1F80CC02DE0D1F82A
:101290000C8008F1040C28E0D1F80C8008F1080C4F
:1012A00023E0D1F80C8008F10C0C1EE000BF00BF59
:1012B00000BF00BF00BF00BFD1F80880B8F1000F29
:1012C00002D14FF0040C0BE0D1F80880B8F1010F07
:1012D00003D14FF0080C146102E04FF0080C546188
:1012E00003E04FF0000C00E000BF00BFFF2801D872
:1012F000904601E002F104084646FF2802D84FEA72
:10130000830803E0A3F108084FEA88084746D6F8A7
:1013100000804FF00F0909FA07F928EA09080CFACA
:1013200007F900E07AE048EA0908C6F80080D1F839
:10133000048008F08058B8F1805F6FD100BFDFF8FB
:10134000E481D8F8188048F00108DFF8D891C9F88E
:101350001880C846D8F8188008F00108CDF8008039
:1013600000BF00BF4FEAB9384FEA930958F8295037
:101370004FEA83784FEA18794FF00F0808FA09F816
:1013800025EA0805DFF8A081424502D14FF00008A8
:1013900024E0DFF89881424502D14FF001081DE0BA
:1013A000DFF88C81424502D14FF0020816E0DFF8E9
:1013B0008481424502D14FF003080FE0DFF87881C5
:1013C000424502D14FF0040808E0DFF87081424541
:1013D00002D14FF0050801E04FF006084FEA83798B
:1013E0004FEA197908FA09F848EA0505DFF850814B
:1013F0004FEA930948F82950D1F8048008F480385E
:10140000B8F5803F0BD1DFF83C81D8F8008048EA7E
:101410000008DFF83091C9F800800AE075E0DFF8D5
:101420002481D8F8008028EA0008DFF81891C9F86C
:101430000080D1F8048008F40038B8F5003F0ED1E0
:10144000DFF8008108F10408D8F8008048EA0008B5
:10145000DFF8F09009F10409C9F800800DE0DFF829
:10146000E48008F10408D8F8008028EA0008DFF8D2
:10147000D49009F10409C9F80080D1F8048008F477
:101480008018B8F5801F0ED1DFF8B88008F1080881
:10149000D8F8008048EA0008DFF8A89009F10809A8
:1014A000C9F800800DE0DFF89C8008F10808D8F842
:1014B000008028EA0008DFF88C9009F10809C9F8D3
:1014C0000080D1F8048008F40018B8F5001F0ED190
:1014D000DFF8708008F10C08D8F8008048EA0008AE
:1014E000DFF8609009F10C09C9F800800DE0DFF821
:1014F000548008F10C08D8F8008028EA0008DFF8CA
:10150000449009F10C09C9F800805B1CD1F80080F7
:1015100028FA03F8B8F1000F7FF47CAEBDE8F88735
:10152000000011100010024000080140000C0140B2
:10153000001001400014014000180140001C01404F
:101540000800014000040140024693680B400BB1C3
:10155000012000E00020704710B5C26821EA0203B4
:1015600002EA010443EA0443036110BD0AB10161C8
:1015700001E00B04036170470148006870470000F8
:101580002400002003480068034909780844014901
:1015900008607047240000202C00002010B5084887
:1015A000006840F0100006490860032000F080F851
:1015B0000F2000F007F800F02BF8002010BD00000D
:1015C0000020024070B504460E4800784FF47A714E
:1015D000B1FBF0F00C490968B1FBF0F5284600F0CA
:1015E000A5FD08B1012070BD102C07D200222146B4
:1015F000501E00F01EF80548046001E00120F2E7EB
:101600000020F0E72C00002000000020280000202F
:10161000704701460846002809DB00F01F0301223D
:101620009A4043099B0003F1E023C3F8002100BF67
:1016300070472DE9F05F80460D461646002701F001
:1016400095F9074639462A46334601F00700C0F1AE
:10165000070ABAF1040F02D94FF0040A01E0C0F101
:10166000070AD14600F1040ABAF1070F02D24FF07F
:10167000000A01E0A0F1030AD4464FF0010A0AFA79
:1016800009FAAAF1010A0AEA020A0AFA0CFA4FF068
:10169000010B0BFA0CFBABF1010B0BEA030B4AEA53
:1016A0000B042146404601F069F9BDE8F09F0000B7
:1016B00000BF00F00702064B19684FF6FF03194000
:1016C000044B0B4343EA0221014B196000BF7047F2
:1016D0000CED00E00000FA052DE9F04385B0064668
:1016E00042A30FCB01AC0FC444A0006800904FF0A0
:1016F0000008002500270024A146042E36D004DC73
:10170000012E3BD0022E6BD15FE0082E32D0102E7E
:1017100066D13B484468006800F0807000B301A8BF
:10172000C4F38341475C04F4803070B134484068AE
:10173000C0F340401DF8008004F4803040B13148CF
:10174000B0FBF8F000FB07F502E02F4807FB00F5BF
:101750002B48406800F48000B0F5800F01D1A94605
:1017600003E068000321B0FBF1F93AE000F0D2F9A0
:10177000814636E000F0CEF9814632E02048046A26
:1017800004F44070B0F5807F05D104F0020010B180
:101790004FF4004918E004F44070B0F5007F07D121
:1017A0001748406A00F0020010B149F640490BE0CA
:1017B00004F44070B0F5407F06D11148006800F491
:1017C000003008B14FF224490BE000F093F90C49C6
:1017D0004968C1F38131491C4900B0FBF1F900E0CF
:1017E00000BF00BF484605B0BDE8F0830203040512
:1017F000060708090A0B0C0D0E0F1010010200005D
:101800000010024000127A0000093D00F8B50446BD
:1018100000260025207800F0010000286BD000276A
:101820004348C06900F0805070B900BF4048C069AB
:1018300040F080503E49C8610846C06900F08050C1
:10184000009000BF00BF01273A48006800F4807094
:10185000B0B93848006840F4807036490860FFF736
:101860008BFE064606E0FFF787FE801B642801D941
:101870000320F8BD2F48006800F480700028F2D0E3
:101880002B48006A00F440752DB3A08800F4407026
:10189000A84220D02648006A20F44075012026493D
:1018A0000860002008602248056205F0010090B140
:1018B000FFF762FE064608E0FFF75EFE801B41F27E
:1018C0008831884201D90320D3E71948006A00F023
:1018D00002000028F0D01648006A20F440706168C9
:1018E000084313490862012F04D10846C06920F05B
:1018F0008050C86100BF207800F00200022807D1A4
:101900000B48406820F44040A168084308494860FB
:10191000207800F01000102807D10548406820F416
:10192000800061690843024948600020A1E7000087
:1019300000100240007000404004424270B504466E
:101940000D460CB9012070BD5A48006800F0070030
:10195000A8420ED25748006820F007002843554996
:1019600008600846006800F00700A84201D0012086
:10197000E9E7207800F0020002281DD1207800F06D
:101980000400042805D14C48406840F4E0604A490E
:101990004860207800F00800082805D146484068D3
:1019A00040F46050444948604348406820F0F000EB
:1019B000A168084340494860207800F0010078B3EE
:1019C0006068012806D13C48006800F4003090B9F6
:1019D0000120B8E76068022806D13748006800F0A7
:1019E000007040B90120AEE73348006800F0020003
:1019F00008B90120A7E73048406820F0030061687B
:101A000008432D494860FFF7B7FD064609E0FFF798
:101A1000B3FD801B41F28831884202D9032092E74E
:101A200007E02548406800F00C006168B0EB810FCA
:101A3000EDD12048006800F00700A8420ED91D48EB
:101A4000006820F0070028431A490860084600682B
:101A500000F00700A84201D0012074E7207800F0D0
:101A60000400042807D11448406820F4E060E168CD
:101A7000084311494860207800F00800082808D180
:101A80000D48406820F46050216940EAC1000A49CD
:101A9000486000F03FF808494968C1F30311074A5C
:101AA000515CC8400649086006480068FFF78AFD97
:101AB000002048E70020024000100240048F000888
:101AC0000000002028000020014800687047000046
:101AD0000000002000B5FFF7F7FF04494968C1F393
:101AE0000221034A515CC84000BD000000100240C2
:101AF000148F000800B5FFF7E7FF04494968C1F3F8
:101B0000C221034A515CC84000BD000000100240E1
:101B1000148F0008F0B585B00FF26C0C9CE8E01053
:101B200001A8A0E8E0101CA52D6800950021002266
:101B3000002300240020194D696801F00C05F5B15F
:101B4000042D02D0082D19D101E0154819E001AD8E
:101B5000C1F38346AC5D01F4803555B10F4D6D681E
:101B6000C5F340451DF805200D4D6543B5FBF2F367
:101B700002E00C4D04FB05F3184602E000BF0848E4
:101B800000BF00BF05B0F0BD020304050607080949
:101B90000A0B0C0D0E0F1010010200000010024085
:101BA00000127A0000093D00F8B504460CB9012086
:101BB000F8BD207800F00100002878D0F84840688F
:101BC00000F00C0004280CD0F548406800F00C0030
:101BD000082811D1F248406800F48030B0F5803F09
:101BE0000AD1EF48006800F4003000285FD0606838
:101BF00000285CD10120DBE700BF6068B0F5803FC2
:101C000006D1E748006840F48030E549086028E0E4
:101C1000606858B9E248006820F48030E049086004
:101C20000846006820F4802008601AE06068B0F57B
:101C3000A02F0BD1DA48006840F48020D849086012
:101C40000846006840F4803008600AE0D448006824
:101C500020F48030D24908600846006820F48020D3
:101C6000086000BF606888B1FFF786FC054606E0A3
:101C7000FFF782FC401B642801D9032098E7C8487D
:101C8000006800F400300028F2D010E0FFF774FC88
:101C9000054606E0FFF770FC401B642801D90320CD
:101CA00086E7BF48006800F400300028F2D12078B1
:101CB00000F00200022857D1B948406800F00C003B
:101CC00050B1B748406800F00C00082818D1B4485B
:101CD000406800F4803098B9B148006800F0020014
:101CE00020B12069012801D0012061E7AC480068DB
:101CF00020F0F800616940EAC100A949086033E0BA
:101D00002069E8B10120A7490860FFF735FC0546C6
:101D100006E0FFF731FC401B022801D9032047E70A
:101D20009F48006800F002000028F2D09C4800683C
:101D300020F0F800616940EAC1009949086013E0A9
:101D4000002098490860FFF717FC054606E0FFF7FA
:101D500013FC401B022801D9032029E790480068A2
:101D600000F002000028F2D1207800F008000828D6
:101D70002DD1A069B8B101208B490860FFF7FCFBA9
:101D8000054606E0FFF7F8FB401B022801D90320B7
:101D90000EE78348406A00F002000028F2D00120DC
:101DA00000F08AFC13E000207F490860FFF7E4FBA5
:101DB000054606E0FFF7E0FB401B022801D903209F
:101DC000F6E67748406A00F002000028F2D1207859
:101DD00000F00400042873D100277148C06900F0A6
:101DE000805070B900BF6E48C06940F080506C49A7
:101DF000C8610846C06900F08050009000BF00BF75
:101E000001276A48006800F48070B0B9674800682C
:101E100040F4807065490860FFF7AEFB054606E0B8
:101E2000FFF7AAFB401B642801D90320C0E65F48E6
:101E3000006800F480700028F2D000BFE06801283C
:101E400006D15748006A40F001005549086227E072
:101E5000E06858B95248006A20F001005049086211
:101E60000846006A20F00400086219E0E0680528CE
:101E70000BD14B48006A40F004004949086208460B
:101E8000006A40F0010008620AE04548006A20F05C
:101E90000100434908620846006A20F00400086215
:101EA00000BFE068A0B1FFF767FB054609E0FFF758
:101EB00063FB401B41F28831884202D9032077E658
:101EC00022E03748006A00F002000028EFD012E05C
:101ED000FFF752FB054608E0FFF74EFB401B41F2BF
:101EE0008831884201D9032062E62D48006A00F05B
:101EF00002000028F0D1012F05D12948C06920F047
:101F000080502749C86100BFE069C8B324484068D1
:101F100000F00C00082860D0E069022848D10020B9
:101F200020490866FFF728FB054606E0FFF724FB7B
:101F3000401B022801D903203AE61948006800F046
:101F400000700028F2D1206AB0F5803F07D1144814
:101F5000406820F40030A168084311494860D4E982
:101F6000080108430E49496821F4741108430C49DB
:101F7000486001200B490866FFF7FEFA054607E0B6
:101F80003DE0FFF7F9FA401B022801D903200FE6D4
:101F90000348006800F000700028F2D02FE0000035
:101FA00000100240000042428004424200700040A3
:101FB000002014490866FFF7DFFA054606E0FFF740
:101FC000DBFA401B022801D90320F1E50E48006826
:101FD00000F000700028F2D111E0E069012800D182
:101FE000E6E50948466806F48031206A814204D15A
:101FF00006F47011606A814201D00120D8E500200A
:10200000D6E50000000042420010024070B50446D0
:102010000E4615461CB1A069B0F5807F01D10120A4
:1020200070BD94F8410028B9002084F84000204693
:1020300000F020F804F108012068FEF73FFC31466B
:10204000A2682068FEF776FC2946236BD4E90102DA
:10205000FEF712FCA168206850F8210040F0010052
:10206000A268216841F82200012084F84100002084
:10207000D6E7000010B586B0044600BF1E48406990
:1020800040F480701C4948610846406900F4807043
:10209000019000BF00BF00BF0846806940F02000EB
:1020A00088610846806900F02000019000BF00BFF1
:1020B00000BF0846806940F040008861084680699A
:1020C00000F04000019000BF00BF4CF2037002908E
:1020D00002200390012004900320059002A90748E4
:1020E000FFF792F84FF68070029002A90448FFF7BC
:1020F0008BF806B010BD0000001002400014014033
:1021000000180140042808D14FF0E021096941F08E
:1021100004014FF0E022116107E04FF0E02109696E
:1021200021F004014FF0E0221161704770B50446C0
:102130002546681EB0F1807F01D301200FE0681EA4
:102140004FF0E02148610F214FF0FF3000F016FC06
:1021500000204FF0E021886107200861002070BD59
:1021600070477047704710B5044620680069C0F397
:102170004000D8B12068C068C0F34000B0B16FF033
:10218000020021680861012020772068806900F042
:10219000030018B12046FFF7E5FF05E0204600F0F8
:1021A000ADF8204600F0ABF80020207720680069E9
:1021B000C0F38000D8B12068C068C0F38000B0B11F
:1021C0006FF0040021680861022020772068806990
:1021D00000F4407018B12046FFF7C4FF05E0204628
:1021E00000F08CF8204600F08AF800202077206864
:1021F0000069C0F3C000D8B12068C068C0F3C00057
:10220000B0B16FF0080021680861042020772068D1
:10221000C06900F0030018B12046FFF7A3FF05E0F6
:10222000204600F06BF8204600F069F80020207787
:1022300020680069C0F30010D8B12068C068C0F3FE
:102240000010B0B16FF010002168086108202077FD
:102250002068C06900F4407018B12046FFF782FF83
:1022600005E0204600F04AF8204600F048F800203B
:1022700020772068006900F0010058B12068C0682C
:1022800000F0010030B16FF00100216808612046C4
:1022900000F036F820680069C0F3C01058B120681B
:1022A000C068C0F3C01030B16FF0800021680861D1
:1022B0002046FFF755FF20680069C0F3801058B131
:1022C0002068C068C0F3801030B16FF04000216812
:1022D0000861204600F024F820680069C0F340102F
:1022E00058B12068C068C0F3401030B16FF02000D2
:1022F000216808612046FFF734FF10BD7047704722
:1023000010B504460448844205D100BF202103488B
:10231000FFF722F900BF10BD800200200018014025
:10232000704770472DE9F04704462068056820682B
:10233000C668206847694FF00008C14605F00F08DD
:10234000B8F1000F0AD105F0200038B106F02000E6
:1023500020B1204600F002FABDE8F087B8F1000F86
:1023600071D007F0010018B906F4907000286AD007
:1023700005F0010030B106F4807018B1E06B40F058
:102380000100E06305F0040030B107F0010018B16E
:10239000E06B40F00200E06305F0020030B107F0AE
:1023A000010018B1E06B40F00400E06305F00800A4
:1023B00048B106F0200010B907F0010018B1E06B39
:1023C00040F00800E063E06B68B305F0200028B13E
:1023D00006F0200010B1204600F0C0F920684069E6
:1023E000C0F38019E06B00F0080010B9B9F1000FDC
:1023F00022D0204600F092F92068406900F04000A9
:10240000B0B12068406920F0400021684861606BED
:1024100050B11848616B4863606BFEF721FE10B144
:10242000606B416B88470CE02046FFF77AFF08E0BD
:102430002046FFF776FF04E02046FFF772FF0020FA
:10244000E06389E7FFE705F0800030B106F0800027
:1024500018B1204600F050FA7EE705F0400030B198
:1024600006F0400018B1204600F068F974E700BF9C
:1024700072E700000927000810B504460CB90120D6
:1024800010BDA06900B100E000BF94F8390028B980
:10249000002084F83800204600F028F8242084F832
:1024A00039002068C06820F400502168C8602046C8
:1024B00000F0A4F92068006920F4904021680861C8
:1024C0002068406920F02A00216848612068C068BF
:1024D00040F400502168C8600020E063202084F8A8
:1024E000390084F83A000020CAE7000010B586B031
:1024F00004462849206888424AD100BF00BF2648C8
:10250000806940F00400244988610846806900F031
:102510000400019000BF00BF00BF00BF00BF08461D
:10252000806940F0040088610846806900F004007A
:10253000019000BF00BF00BF00BF00BF0846806918
:1025400040F4804088610846806900F48040019032
:1025500000BF00BF00BF4815029002200390012079
:1025600004900320059002A90C48FEF74DFE4FF49D
:10257000806002900020039002A90848FEF744FE04
:102580002520FFF746F8032211462520FFF751F8D2
:1025900006B010BD003801400010024000080140A4
:1025A00010B5034693F83A0020282FD101B10AB99B
:1025B000012010BD00BF93F83800012801D102208E
:1025C000F7E7012083F8380000BF99629A85DA8521
:1025D0000020D863222083F83A0000BF002083F84F
:1025E000380000BF1868C06840F480701C68E06064
:1025F0001868406940F001001C6860611868C06894
:1026000040F020001C68E0600020D2E70220D0E704
:1026100010B504462049206888423BD11F480088F5
:1026200000F4004088BB1D48008800F4804070B171
:102630001B4800780A2803D000201849088024E0AD
:102640001648008840F40040144908801DE01448F2
:1026500000780D2806D11148008840F480400F49C9
:10266000088012E00E4800780C490988C1F30D017A
:102670000C4A505409480088401C08490880084604
:102680000088C72801DD002008800122044906488F
:10269000FFF786FF10BD0000003801402000002039
:1026A00022000020D8000020A0010020704700BFB9
:1026B000FEE700BFFEE7704708B508490968C9088A
:1026C0004FF47A72B1FBF2F14143009100BF00BFB9
:1026D00000994A1E00920029F9D108BD000000208F
:1026E00010B5FEF74FFF05F087FF012801D005F078
:1026F0004DFD10BD7047000010B50248FFF733FDD7
:1027000010BD00008002002070B505466C6A0020F4
:10271000E085E0842046FFF704FE70BD0168C968CB
:1027200021F490710268D1600168496921F00101CA
:1027300002685161202180F83A10704710B50446B4
:102740002068C06820F040002168C860202084F81C
:1027500039002046FFF7AAFF002010BD70B50446DF
:1027600094F83A00222847D1A068B0F5805F0CD1D8
:10277000206950B90025A66A20684068C0F30800A7
:102780003080A06A801CA06215E0A56A0026A068BF
:10279000B0F5805F03D0A06828B9206918B9206817
:1027A0004068287004E02068406800F07F002870CE
:1027B000A06A401CA062E08D401E80B2E085C8B9CE
:1027C0002068C06820F020002168C8602068C068C8
:1027D00020F480702168C8602068406920F0010002
:1027E00021684861202084F83A002046FFF710FF56
:1027F000002070BD0020FCE70220FAE770B5044617
:102800002168096921F44051E2681143226811618D
:102810002269A1681143626941EA02052168C96819
:1028200041F20C62914329432268D16021684969D1
:1028300021F44071A2691143226851612D4A216837
:10284000914202D1FFF756F901E0FFF743F900EB9F
:10285000C00101EB001162689200B1FBF2F100EBE4
:10286000C00202EB001263689B00B2FBF3F2642328
:10287000B2FBF3F202EBC20303EB0212A1EB820103
:10288000322202EB01116422B1FBF2F101F0F001FE
:1028900000EBC00202EB001263689B00B2FBF3F294
:1028A0006423B2FBF3F201EB021200EBC00101EB77
:1028B000001163689B00B1FBF3F100EBC00303EB75
:1028C00000136668B600B3FBF6F36426B3FBF6F3B9
:1028D00003EBC30606EB0313A1EB8301322303EBE7
:1028E00001116423B1FBF3F101F00F0111442268DF
:1028F000916070BD00380140014691F839002128EF
:1029000028D18868B0F5805F0BD1086948B90A6A98
:102910001088C0F308000B685860086A801C0862C1
:1029200005E00B6A581C086218780B685860C88C60
:10293000401E80B2C88458B90868C06820F0800082
:102940000B68D8600868C06840F040000B68D86029
:10295000002070470220FCE710B50248FFF7E2FCB8
:1029600010BD0000A001002000BFFEE70248006883
:10297000C0F30220704700000CED00E010B5002805
:1029800004DB0A07130E054A135406E00A07140E67
:10299000034A00F00F031B1FD45410BD00E400E0F5
:1029A00018ED00E000BF70470EB5104810490860F0
:1029B0000020486000210E488160017301210161FF
:1029C0000021017581614FF46021C161FEF70AF9B0
:1029D0000748FDF7D1FF0620009001200190072055
:1029E000029069460248FEF749F80EBD003C0140DE
:1029F000C802002010B50648FEF79AFA0A210448DA
:102A0000FEF7DEF90248FEF7E9F880B210BD0000DB
:102A1000C802002070B5044600204FF0E021086194
:102A2000FFF770FBE11704EB5171C1F3CF010C4AC2
:102A30001180E11704EB5171CD104FF47A704543CA
:102A40004FF0E020006940F002004FF0E021086103
:102A500008464561006940F00100086170BD000052
:102A60001800002030B50446002504E04FF47A70C9
:102A700000F004F86D1CA542F8D330BD70B50346D4
:102A800000224FF0E02675690D4E368803FB06F4F0
:102A90004FF0E026B16910E04FF0E026B0698842BF
:102AA0000BD0884202D20E1A324402E02E1A0E4493
:102AB00032440146A24200D300E0EDE700BF70BD02
:102AC0001800002000BF054A126802F04002002AE8
:102AD000F9D0C2B2014B1B1D1A607047003801408B
:102AE0001CB50648012100238022CDE9001004A175
:102AF000064805F051FD05F047F91CBD080000200F
:102B000073746172745F7461736B00008573000885
:102B100000B585B000BF00BF3648806940F0400076
:102B2000344988610846806900F04000009000BF89
:102B300000BF00BF00BF00BF0846806940F04000F2
:102B400088610846806900F04000009000BF00BF27
:102B500000BF00BF00BF0846806940F040008861A8
:102B60000846806900F04000009000BF00BF00BF31
:102B700000BF00BF0846806940F004008861084635
:102B8000806900F00400009000BF00BF00BF10206B
:102B9000019000200290012003900320049001A9DD
:102BA0001548FEF731FB082001900020029001201B
:102BB00003900320049001A90F48FEF725FB042091
:102BC000019000200290012003900320049001A9AD
:102BD0000948FEF719FB0120019000200290022015
:102BE00003900320049001A90448FEF70DFB05B0F3
:102BF00000BD000000100240001801400008014024
:102C000070B50446002514B101202B4908702A48EC
:102C10000078002834D010212848FEF795FC78B1C0
:102C200008212648FEF790FC50B104212348FEF706
:102C30008BFC28B101212248FEF786FC01281FD118
:102C40000A20FFF70FFF00201B49087010211B48C6
:102C5000FEF77AFC00B9012508211848FEF774FC3C
:102C600000B9022504211548FEF76EFC00B90325C2
:102C700001211348FEF768FC01281BD1042519E047
:102C800010210E48FEF760FC012813D108210B48E3
:102C9000FEF75AFC01280DD104210848FEF754FC28
:102CA000012807D101210648FEF74EFC10B901208A
:102CB00001490870284670BD380000200018014006
:102CC0000008014070B50446002609480588408880
:102CD00045430021084603F0E1F803F0E9FA00BF9C
:102CE00002E004480480761CAE42FAD370BD0000B6
:102CF000280200200008006C10B504465848847172
:102D0000002C58D1F020564908804FF4A07048801C
:102D10000846808845F21051884210D14FF4305057
:102D20004F4908814FF4285048814FF42C50888136
:102D30004FF4F07008804FF4487048801AE048481B
:102D4000808841F6631188420DD12C2044490881C6
:102D50002B2048812A2088814FF4F07008804FF49E
:102D60004870488006E02C203D4908812A2048818F
:102D70002B2088813A48808845F21031884205D05E
:102D80003748808847F29671884206D14FF4A07088
:102D9000334908804FF4F07048803148808849F604
:102DA0000601884258D14FF4F0702D4908804FF445
:102DB0004870488050E04FF4A07029490880F02006
:102DC00048800846808845F21051884210D14FF45F
:102DD0003050234908814FF4285048814FF42C503B
:102DE00088814FF4487008804FF4F070488020E0EC
:102DF0001B48808841F66311884205D018488088B6
:102E000049F6060188420DD12C20154908812A2057
:102E100048812B2088814FF4487008804FF4F0706F
:102E2000488006E02C200E4908812A2048812B206A
:102E300088810B48808845F21031884205D00848C7
:102E4000808847F29671884206D14FF4F0700449A9
:102E500008804FF4A0704880002002F001FF10BDF0
:102E6000280200202DE9F04706460F4690469A4674
:102E7000002445460320A0EB480944E07A1B91B2A8
:102E8000321990B2524600F043F83A1B91B27219CF
:102E900090B2524600F03CF83A1991B2721990B2D1
:102EA000524600F035F87A1991B2321990B2524672
:102EB00000F02EF87A1991B2321B90B2524600F00F
:102EC00027F83A1991B2721B90B2524600F020F8DE
:102ED0007A1B91B2321B90B2524600F019F83A1B9D
:102EE00091B2721B90B2524600F012F8641CB9F114
:102EF000000F03DAA000801D814404E0601B800005
:102F00000A3081446D1EAC42B8DDBDE8F087000098
:102F100070B505460E4614463146284602F0BEFFFF
:102F200003F0C6F901490C8070BD00000008006C78
:102F300010B5CF2003F0B0F9002003F0A1F9C120B3
:102F400003F09EF9302003F09BF9ED2003F0A4F983
:102F5000642003F095F9032003F092F9122003F0A6
:102F60008FF9812003F08CF9E82003F095F9852092
:102F700003F086F9102003F083F97A2003F080F93A
:102F8000CB2003F089F9392003F07AF92C2003F0E3
:102F900077F9002003F074F9342003F071F902206E
:102FA00003F06EF9F72003F077F9202003F068F9B9
:102FB000EA2003F071F9002003F062F9002003F029
:102FC0005FF9C02003F068F91B2003F059F9C12014
:102FD00003F062F9012003F053F9C52003F05CF916
:102FE000302003F04DF9302003F04AF9C72003F0F8
:102FF00053F9B72003F044F9362003F04DF9482087
:1030000003F03EF93A2003F047F9552003F038F970
:10301000B12003F041F9002003F032F91A2003F047
:103020002FF9B62003F038F90A2003F029F9A2207D
:1030300003F026F9F22003F02FF9002003F020F925
:10304000262003F029F9012003F01AF9E02003F00B
:1030500023F90F2003F014F92A2003F011F9282096
:1030600003F00EF9082003F00BF90E2003F008F925
:10307000082003F005F9542003F002F9A92003F019
:10308000FFF8432003F0FCF80A2003F0F9F80F20C2
:1030900003F0F6F8002003F0F3F8002003F0F0F856
:1030A000002003F0EDF8002003F0EAF8E12003F03F
:1030B000F3F8002003F0E4F8152003F0E1F81720FE
:1030C00003F0DEF8072003F0DBF8112003F0D8F856
:1030D000062003F0D5F82B2003F0D2F8562003F099
:1030E000CFF83C2003F0CCF8052003F0C9F81020FD
:1030F00003F0C6F80F2003F0C3F83F2003F0C0F838
:103100003F2003F0BDF80F2003F0BAF82B2003F0A6
:10311000C3F8002003F0B4F8002003F0B1F8012058
:1031200003F0AEF83F2003F0ABF82A2003F0B4F828
:10313000002003F0A5F8002003F0A2F8002003F01F
:103140009FF8EF2003F09CF8112003F0A5F87820F9
:10315000FFF788FC292003F09FF810BD10B5FF2071
:1031600003F09AF8FF2003F08BF8982003F088F81A
:10317000062003F085F8BC2003F08EF8012003F050
:103180007FF80F2003F07CF8612003F079F8FF202E
:1031900003F076F8012003F073F8012003F070F8D3
:1031A0000B2003F06DF8102003F06AF8372003F0CD
:1031B00067F8632003F064F8FF2003F061F8FF2054
:1031C00003F05EF8012003F05BF8012003F058F8EB
:1031D000002003F055F8002003F052F8FF2003F020
:1031E0004FF8522003F04CF8012003F049F800207A
:1031F00003F046F8402003F043F8BD2003F04CF8FC
:10320000012003F03DF8232003F03AF8452003F0B5
:1032100037F8672003F034F8012003F031F8232059
:1032200003F02EF8452003F02BF8672003F028F870
:10323000BE2003F031F8002003F022F8012003F053
:103240001FF8AB2003F01CF8602003F019F82220CF
:1032500003F016F8222003F013F8222003F010F8F0
:10326000222003F00DF8222003F00AF8C72003F013
:1032700013F8362003F004F8ED2003F00DF87F205A
:1032800002F0FEFF0F2002F0FBFFC02003F004F865
:103290000F2002F0F5FF0B2002F0F2FF0A2002F0EF
:1032A000EFFFFC2002F0F8FF082002F0E9FFDF202A
:1032B00002F0F2FF002002F0E3FF002002F0E0FF46
:1032C000002002F0DDFF002002F0DAFF002002F013
:1032D000D7FF202002F0D4FFF32002F0DDFF74209E
:1032E00002F0CEFFB42002F0D7FF002002F0C8FFAA
:1032F000002002F0C5FF002002F0C2FFF72002F01C
:10330000CBFF822002F0BCFFB12002F0C5FF0020FD
:1033100002F0B6FF132002F0B3FF132002F0B0FF5B
:10332000F22002F0B9FF802002F0AAFF042002F090
:10333000A7FF402002F0A4FF282002F0A1FFC12037
:1033400002F0AAFF172002F09BFF882002F098FFEE
:10335000882002F095FF202002F092FFE02002F08A
:103360009BFF002002F08CFF0A2002F089FF122050
:1033700002F086FF102002F083FF0E2002F080FF93
:10338000202002F07DFFCC2002F07AFF072002F01F
:1033900077FF062002F074FF0B2002F071FF0E2071
:1033A00002F06EFF0F2002F06BFF0D2002F068FFAD
:1033B000152002F065FF102002F062FF002002F0ED
:1033C0005FFFE12002F068FF002002F059FF0B20B0
:1033D00002F056FF132002F053FF0D2002F050FFC1
:1033E0000E2002F04DFF1B2002F04AFF712002F078
:1033F00047FF062002F044FF062002F041FF0A20AA
:1034000002F03EFF0F2002F03BFF0E2002F038FFDB
:103410000F2002F035FF152002F032FF0C2002F0E1
:103420002FFF002002F02CFF2A2002F035FF0020A1
:1034300002F026FF002002F023FF012002F020FF0F
:10344000DF2002F01DFF2B2002F026FF002002F0FB
:1034500017FF002002F014FF032002F011FF1F20CD
:1034600002F00EFF3A2002F017FF552002F008FF8D
:10347000362002F011FF002002F002FF112002F0BE
:103480000BFF7820FFF7EEFA292002F005FF142049
:10349000FFF7E8FA2C2002F0FFFE10BD10B5ED207A
:1034A00002F0FAFE012002F0EBFEFE2002F0E8FE40
:1034B000EE2002F0F1FEDE2002F0E2FE212002F01A
:1034C000DFFEF12002F0E8FE012002F0D9FEDF204D
:1034D00002F0E2FE102002F0D3FEC42002F0DCFE77
:1034E0008F2002F0CDFEC62002F0D6FE002002F0B2
:1034F000C7FEE22002F0C4FEE22002F0C1FEE2209C
:1035000002F0BEFEBF2002F0C7FEAA2002F0B8FE05
:10351000B02002F0C1FE0D2002F0B2FE002002F049
:10352000AFFE0D2002F0ACFE002002F0A9FE11203B
:1035300002F0A6FE002002F0A3FE192002F0A0FE79
:10354000002002F09DFE212002F09AFE002002F0F1
:1035500097FE2D2002F094FE002002F091FE3D2007
:1035600002F08EFE002002F08BFE5D2002F088FE4D
:10357000002002F085FE5D2002F082FE002002F0B5
:103580007FFEB12002F088FE802002F079FE00204C
:1035900002F076FE8B2002F073FE002002F070FE37
:1035A000962002F06DFE002002F06AFEB22002F0CA
:1035B00073FE002002F064FE002002F061FE022093
:1035C00002F05EFE002002F05BFE032002F058FED7
:1035D000002002F055FEB32002F05EFE002002F053
:1035E0004FFE002002F04CFE002002F049FE0020B9
:1035F00002F046FE002002F043FE002002F040FEF2
:10360000002002F03DFE002002F03AFE002002F011
:1036100037FE002002F034FE002002F031FE0020D0
:1036200002F02EFE002002F02BFE002002F028FE09
:10363000002002F025FE002002F022FE002002F011
:103640001FFE002002F01CFE002002F019FE0020E8
:1036500002F016FE002002F013FE002002F010FE21
:10366000002002F00DFE002002F00AFEB42002F05D
:1036700013FE8B2002F004FE002002F001FE9620D3
:1036800002F0FEFD002002F0FBFDA12002F0F8FD9B
:10369000002002F0F5FDB52002F0FEFD022002F050
:1036A000EFFD002002F0ECFD032002F0E9FD002018
:1036B00002F0E6FD042002F0E3FD002002F0E0FD50
:1036C000B62002F0E9FD002002F0DAFD002002F051
:1036D000D7FDB72002F0E0FD002002F0D1FD002070
:1036E00002F0CEFD3F2002F0CBFD002002F0C8FD2D
:1036F0005E2002F0C5FD002002F0C2FD642002F051
:10370000BFFD002002F0BCFD8C2002F0B9FD0020BE
:1037100002F0B6FDAC2002F0B3FD002002F0B0FDD7
:10372000DC2002F0ADFD002002F0AAFD702002F0C6
:10373000A7FD002002F0A4FD902002F0A1FD0020D2
:1037400002F09EFDEB2002F09BFD002002F098FDB0
:10375000DC2002F095FD002002F092FDB82002F07E
:103760009BFD002002F08CFD002002F089FD00206E
:1037700002F086FD002002F083FD002002F080FDB3
:10378000002002F07DFD002002F07AFD002002F012
:1037900077FDBA2002F080FD242002F071FD0020A8
:1037A00002F06EFD002002F06BFD002002F068FDCB
:1037B000C12002F071FD202002F062FD002002F025
:1037C0005FFD542002F05CFD002002F059FDFF2057
:1037D00002F056FD002002F053FDC22002F05CFD15
:1037E0000A2002F04DFD002002F04AFD042002F004
:1037F00047FD002002F044FDC32002F04DFD3C20B7
:1038000002F03EFD002002F03BFD3A2002F038FDC0
:10381000002002F035FD392002F032FD002002F0D8
:103820002FFD372002F02CFD002002F029FD3C2066
:1038300002F026FD002002F023FD362002F020FDDC
:10384000002002F01DFD322002F01AFD002002F0DF
:1038500017FD2F2002F014FD002002F011FD2C2096
:1038600002F00EFD002002F00BFD292002F008FD01
:10387000002002F005FD262002F002FD002002F0EB
:10388000FFFC242002F0FCFC002002F0F9FC2420C4
:1038900002F0F6FC002002F0F3FC232002F0F0FC22
:1038A000002002F0EDFC3C2002F0EAFC002002F0D7
:1038B000E7FC362002F0E4FC002002F0E1FC3220BC
:1038C00002F0DEFC002002F0DBFC2F2002F0D8FC2E
:1038D000002002F0D5FC2C2002F0D2FC002002F0E7
:1038E000CFFC292002F0CCFC002002F0C9FC2620ED
:1038F00002F0C6FC002002F0C3FC242002F0C0FC51
:10390000002002F0BDFC242002F0BAFC002002F0EE
:10391000B7FC232002F0B4FC002002F0B1FCC4206C
:1039200002F0BAFC622002F0ABFC002002F0A8FC1E
:10393000052002F0A5FC002002F0A2FC842002F089
:103940009FFC002002F09CFCF02002F099FC00207B
:1039500002F096FC182002F093FC002002F090FC8C
:10396000A42002F08DFC002002F08AFC182002F056
:1039700087FC002002F084FC502002F081FC002033
:1039800002F07EFC0C2002F07BFC002002F078FCB0
:10399000172002F075FC002002F072FC952002F066
:1039A0006FFC002002F06CFCF32002F069FC0020A8
:1039B00002F066FCE62002F063FC002002F060FCEE
:1039C000C52002F069FC322002F05AFC002002F00F
:1039D00057FC442002F054FC002002F051FC65200A
:1039E00002F04EFC002002F04BFC762002F048FC76
:1039F000002002F045FC882002F042FC002002F08A
:103A00003FFCC62002F048FC202002F039FC0020D8
:103A100002F036FC172002F033FC002002F030FCEC
:103A2000012002F02DFC002002F02AFCC72002F049
:103A300033FC002002F024FC002002F021FC0020D6
:103A400002F01EFC002002F01BFCC82002F024FC47
:103A5000002002F015FC002002F012FC002002F011
:103A60000FFC002002F00CFCC92002F015FC002025
:103A700002F006FC002002F003FC002002F000FC33
:103A8000002002F0FDFB002002F0FAFB002002F013
:103A9000F7FB002002F0F4FB002002F0F1FB002015
:103AA00002F0EEFB002002F0EBFB002002F0E8FB4E
:103AB000002002F0E5FB002002F0E2FB002002F013
:103AC000DFFB002002F0DCFB002002F0D9FBE0204D
:103AD00002F0E2FB162002F0D3FB002002F0D0FB44
:103AE0001C2002F0CDFB002002F0CAFB212002F0D6
:103AF000C7FB002002F0C4FB362002F0C1FB00200F
:103B000002F0BEFB462002F0BBFB002002F0B8FB37
:103B1000522002F0B5FB002002F0B2FB642002F05C
:103B2000AFFB002002F0ACFB7A2002F0A9FB0020E2
:103B300002F0A6FB8B2002F0A3FB002002F0A0FB0A
:103B4000992002F09DFB002002F09AFBA82002F0D1
:103B500097FB002002F094FBB92002F091FB0020BB
:103B600002F08EFBC42002F08BFB002002F088FBE9
:103B7000CA2002F085FB002002F082FBD22002F076
:103B80007FFB002002F07CFBD92002F079FB0020B3
:103B900002F076FBE02002F073FB002002F070FBE5
:103BA000F32002F06DFB002002F06AFBE12002F03E
:103BB00073FB162002F064FB002002F061FB1C2066
:103BC00002F05EFB002002F05BFB222002F058FBBB
:103BD000002002F055FB362002F052FB002002F0DC
:103BE0004FFB452002F04CFB002002F049FB522025
:103BF00002F046FB002002F043FB642002F040FB91
:103C0000002002F03DFB7A2002F03AFB002002F097
:103C100037FB8B2002F034FB002002F031FB9920AF
:103C200002F02EFB002002F02BFBA82002F028FB64
:103C3000002002F025FBB92002F022FB002002F058
:103C40001FFBC42002F01CFB002002F019FBCA205D
:103C500002F016FB002002F013FBD22002F010FB52
:103C6000002002F00DFBD82002F00AFB002002F039
:103C700007FBE02002F004FB002002F001FBF32030
:103C800002F0FEFA002002F0FBFAE22002F004FB50
:103C9000052002F0F5FA002002F0F2FA0B2002F003
:103CA000EFFA002002F0ECFA1B2002F0E9FA002003
:103CB00002F0E6FA342002F0E3FA002002F0E0FA23
:103CC000442002F0DDFA002002F0DAFA4F2002F080
:103CD000D7FA002002F0D4FA612002F0D1FA0020D5
:103CE00002F0CEFA792002F0CBFA002002F0C8FAF6
:103CF000882002F0C5FA002002F0C2FA972002F0F4
:103D0000BFFA002002F0BCFAA62002F0B9FA0020A7
:103D100002F0B6FAB72002F0B3FA002002F0B0FACF
:103D2000C22002F0ADFA002002F0AAFAC72002F089
:103D3000A7FA002002F0A4FAD12002F0A1FA002094
:103D400002F09EFAD62002F09BFA002002F098FAC8
:103D5000DD2002F095FA002002F092FAF32002F042
:103D60008FFA002002F08CFAE32002F095FA052089
:103D700002F086FA002002F083FA0A2002F080FAAC
:103D8000002002F07DFA1C2002F07AFA002002F0F6
:103D900077FA332002F074FA002002F071FA44201E
:103DA00002F06EFA002002F06BFA502002F068FA7E
:103DB000002002F065FA622002F062FA002002F0B0
:103DC0005FFA782002F05CFA002002F059FA8820AD
:103DD00002F056FA002002F053FA972002F050FA4F
:103DE000002002F04DFAA62002F04AFA002002F06C
:103DF00047FAB72002F044FA002002F041FAC2204C
:103E000002F03EFA002002F03BFAC72002F038FA36
:103E1000002002F035FAD12002F032FA002002F040
:103E20002FFAD52002F02CFA002002F029FADD202A
:103E300002F026FA002002F023FAF32002F020FA22
:103E4000002002F01DFAE42002F026FA012002F020
:103E500017FA002002F014FA012002F011FA0020F3
:103E600002F00EFA022002F00BFA002002F008FA2B
:103E70002A2002F005FA002002F002FA3C2002F0AB
:103E8000FFF9002002F0FCF94B2002F0F9F90020C4
:103E900002F0F6F95D2002F0F3F9002002F0F0F9EB
:103EA000742002F0EDF9002002F0EAF9842002F01B
:103EB000E7F9002002F0E4F9932002F0E1F9002094
:103EC00002F0DEF9A22002F0DBF9002002F0D8F9BE
:103ED000B32002F0D5F9002002F0D2F9BE2002F0A2
:103EE000CFF9002002F0CCF9C42002F0C9F900207B
:103EF00002F0C6F9CD2002F0C3F9002002F0C0F9AB
:103F0000D32002F0BDF9002002F0BAF9DD2002F062
:103F1000B7F9002002F0B4F9F32002F0B1F9002063
:103F200002F0AEF9E52002F0B7F9002002F0A8F99E
:103F3000002002F0A5F9002002F0A2F9002002F012
:103F40009FF9022002F09CF9002002F099F9292043
:103F500002F096F9002002F093F93C2002F090F96B
:103F6000002002F08DF94B2002F08AF9002002F0C7
:103F700087F95D2002F084F9002002F081F97420B5
:103F800002F07EF9002002F07BF9842002F078F93B
:103F9000002002F075F9932002F072F9002002F07F
:103FA0006FF9A22002F06CF9002002F069F9B32049
:103FB00002F066F9002002F063F9BE2002F060F919
:103FC000002002F05DF9C42002F05AF9002002F04E
:103FD00057F9CD2002F054F9002002F051F9D32016
:103FE00002F04EF9002002F04BF9DC2002F048F913
:103FF000002002F045F9F32002F042F9002002F01F
:104000003FF9E62002F048F9112002F039F90020CA
:1040100002F036F9342002F033F9002002F030F9D2
:10402000562002F02DF9002002F02AF9762002F045
:1040300027F9002002F024F9772002F021F900206E
:1040400002F01EF9662002F01BF9002002F018F9B8
:10405000882002F015F9002002F012F9992002F0F0
:104060000FF9002002F00CF9BB2002F009F9002042
:1040700002F006F9992002F003F9002002F000F99D
:10408000662002F0FDF8002002F0FAF8552002F058
:10409000F7F8002002F0F4F8552002F0F1F80020C3
:1040A00002F0EEF8452002F0EBF8002002F0E8F80C
:1040B000432002F0E5F8002002F0E2F8442002F08C
:1040C000DFF8002002F0DCF8E72002F0E5F832200B
:1040D00002F0D6F8002002F0D3F8552002F0D0F814
:1040E000002002F0CDF8762002F0CAF8002002F09D
:1040F000C7F8662002F0C4F8002002F0C1F867207B
:1041000002F0BEF8002002F0BBF8672002F0B8F819
:10411000002002F0B5F8872002F0B2F8002002F08B
:10412000AFF8992002F0ACF8002002F0A9F8BB200B
:1041300002F0A6F8002002F0A3F8992002F0A0F8FF
:10414000002002F09DF8772002F09AF8002002F09B
:1041500097F8442002F094F8002002F091F85620DD
:1041600002F08EF8002002F08BF8232002F088F88D
:10417000002002F085F8332002F082F8002002F0DF
:104180007FF8452002F07CF8002002F079F8E82062
:1041900002F082F8002002F073F8002002F070F8BC
:1041A000992002F06DF8002002F06AF8872002F0F2
:1041B00067F8002002F064F8882002F061F800201F
:1041C00002F05EF8772002F05BF8002002F058F869
:1041D000662002F055F8002002F052F8882002F024
:1041E0004FF8002002F04CF8AA2002F049F8002015
:1041F00002F046F8BB2002F043F8002002F040F83D
:10420000992002F03DF8002002F03AF8662002F012
:1042100037F8002002F034F8552002F031F8002081
:1042200002F02EF8552002F02BF8002002F028F8BA
:10423000442002F025F8002002F022F8442002F089
:104240001FF8002002F01CF8552002F019F8002099
:1042500002F016F8E92002F01FF8AA2002F010F888
:10426000002002F00DF8002002F00AF8002002F011
:1042700007F8002002F010F8AA2002F001F8CF2081
:1042800002F00AF8002001F0FBFF002001F0F8FF27
:10429000002001F0F5FF002001F0F2FF002001F006
:1042A000EFFF002001F0ECFF002001F0E9FF00200B
:1042B00001F0E6FF002001F0E3FF002001F0E0FF45
:1042C000002001F0DDFF002001F0DAFF002001F006
:1042D000D7FF002001F0D4FF002001F0D1FF002023
:1042E00001F0CEFF002001F0CBFFF02001F0D4FF61
:1042F000002001F0C5FF502001F0C2FF002001F0B6
:10430000BFFF002001F0BCFF002001F0B9FFF32047
:1043100001F0C2FF002001F0B3FFF92001F0BCFF63
:10432000062001F0ADFF102001F0AAFF292001F0C6
:10433000A7FF002001F0A4FF3A2001F0ADFF5520B7
:1043400001F09EFF112001F0A7FF6420FEF78AFB19
:10435000292001F0A1FF352001F09EFF002001F08F
:104360008FFF512001F098FFFF2001F089FF5320BB
:1043700001F092FF2C2001F083FF552001F08CFF0B
:10438000822001F07DFF2C2001F086FF10BD10B5CA
:1043900055214FF4704001F095FFAA214FF2010022
:1043A00001F090FF52214FF2020001F08BFF082133
:1043B0004FF2030001F086FF01214FF2040001F0EB
:1043C00081FF0D214FF4304001F07CFF0D214BF2B5
:1043D000010001F077FF0D214BF2020001F072FFA6
:1043E00034214FF4364001F06DFF34214BF201606F
:1043F00001F068FF34214BF2026001F063FF0D21F0
:104400004FF4314001F05EFF0D214BF2011001F03D
:1044100059FF0D214BF2021001F054FF34214FF4EB
:10442000374001F04FFF34214BF2017001F04AFF99
:1044300034214BF2027001F045FF00214FF432406D
:1044400001F040FF00214BF2012001F03BFF002171
:104450004BF2022001F036FF24214FF4384001F0E6
:1044600031FF24214BF6010001F02CFF24214BF6F3
:10447000020001F027FF01214FF43F4001F022FF2D
:104480000F214FF4334001F01DFF0F214BF201309B
:1044900001F018FF0F214BF2023001F013FF34211D
:1044A0004FF4394001F00EFF34214BF6011001F0BA
:1044B00009FF34214BF6021001F004FF08214FF4EC
:1044C000354001F0FFFE08214BF2015001F0FAFEE9
:1044D00008214BF2025001F0F5FE03214FF4424057
:1044E00001F0F0FE24214FF43A4001F0EBFE2421CC
:1044F0004BF6012001F0E6FE24214BF6022001F0EC
:10450000E1FE00214FF43C4001F0DCFE78214BF647
:10451000014001F0D7FE00214BF6024001F0D2FE2F
:1045200000214FF43D4001F0CDFE78214BF60150C3
:1045300001F0C8FE00214BF6025001F0C3FE00213D
:104540004FF43E4001F0BEFE64214BF6016001F0E5
:10455000B9FE00214FF4514001F0B4FE33214DF279
:10456000011001F0AFFE00214DF2021001F0AAFE91
:1045700034214DF2031001F0A5FE00214DF204108C
:1045800001F0A0FE3A214DF2051001F09BFE002142
:104590004DF2061001F096FE4A214DF2071001F08F
:1045A00091FE00214DF2081001F08CFE5C214DF2CD
:1045B000091001F087FE00214DF20A1001F082FE81
:1045C00081214DF20B1001F07DFE00214DF20C1007
:1045D00001F078FEA6214DF20D1001F073FE0021CE
:1045E0004DF20E1001F06EFEE5214DF20F1001F0BC
:1045F00069FE01214DF2101001F064FE13214DF20D
:10460000111001F05FFE01214DF2121001F05AFE6F
:1046100054214DF2131001F055FE01214DF21410FA
:1046200001F050FE82214DF2151001F04BFE0121E8
:104630004DF2161001F046FECA214DF2171001F09E
:1046400041FE02214DF2181001F03CFE00214DF216
:10465000191001F037FE02214DF21A1001F032FE5E
:1046600001214DF21B1001F02DFE02214DF21C1014
:1046700001F028FE34214DF21D1001F023FE02212D
:104680004DF21E1001F01EFE67214DF21F1001F0C9
:1046900019FE02214DF2201001F014FE84214DF28A
:1046A000211001F00FFE02214DF2221001F00AFE4E
:1046B000A4214DF2231001F005FE02214DF2241039
:1046C00001F000FEB7214DF2251001F0FBFD0221A3
:1046D0004DF2261001F0F6FDCF214DF2271001F02A
:1046E000F1FD02214DF2281001F0ECFDDE214DF22A
:1046F000291001F0E7FD02214DF22A1001F0E2FD40
:10470000F2214DF22B1001F0DDFD02214DF22C10B3
:1047100001F0D8FDFE214DF22D1001F0D3FD032153
:104720004DF22E1001F0CEFD10214DF22F1001F0B0
:10473000C9FD03214DF2301001F0C4FD33214DF2CB
:10474000311001F0BFFD03214DF2321001F0BAFD2E
:104750006D214DF2331001F0B5FD00214FF45240B0
:1047600001F0B0FD33214DF2012001F0ABFD00213D
:104770004DF2022001F0A6FD34214DF2032001F09C
:10478000A1FD00214DF2042001F09CFD3A214DF2E3
:10479000052001F097FD00214DF2062001F092FD69
:1047A0004A214DF2072001F08DFD00214DF2082035
:1047B00001F088FD5C214DF2092001F083FD00210C
:1047C0004DF20A2001F07EFD81214DF20B2001F017
:1047D00079FD00214DF20C2001F074FDA6214DF26F
:1047E0000D2001F06FFD00214DF20E2001F06AFD59
:1047F000E5214DF20F2001F065FD01214DF2102061
:1048000001F060FD13214DF2112001F05BFD01214B
:104810004DF2122001F056FD54214DF2132001F00B
:1048200051FD01214DF2142001F04CFD82214DF289
:10483000152001F047FD01214DF2162001F042FD47
:10484000CA214DF2172001F03DFD02214DF2182042
:1048500001F038FD00214DF2192001F033FD022155
:104860004DF21A2001F02EFD01214DF21B2001F026
:1048700029FD02214DF21C2001F024FD34214DF2CE
:104880001D2001F01FFD02214DF21E2001F01AFD36
:1048900067214DF21F2001F015FD02214DF220206D
:1048A00001F010FD84214DF2212001F00BFD0221C9
:1048B0004DF2222001F006FDA4214DF2232001F04B
:1048C00001FD02214DF2242001F0FCFCB7214DF244
:1048D000252001F0F7FC02214DF2262001F0F2FC28
:1048E000CF214DF2272001F0EDFC02214DF22820CE
:1048F00001F0E8FCDE214DF2292001F0E3FC022169
:104900004DF22A2001F0DEFCF2214DF22B2001F0C5
:10491000D9FC02214DF22C2001F0D4FCFE214DF2F5
:104920002D2001F0CFFC03214DF22E2001F0CAFC16
:1049300010214DF22F2001F0C5FC03214DF2302053
:1049400001F0C0FC33214DF2312001F0BBFC03210A
:104950004DF2322001F0B6FC6D214DF2332001F012
:10496000B1FC00214FF4534001F0ACFC33214DF277
:10497000013001F0A7FC00214DF2023001F0A2FC51
:1049800034214DF2033001F09DFC00214DF2043042
:1049900001F098FC3A214DF2053001F093FC002122
:1049A0004DF2063001F08EFC4A214DF2073001F045
:1049B00089FC00214DF2083001F084FC5C214DF2AD
:1049C000093001F07FFC00214DF20A3001F07AFC41
:1049D00081214DF20B3001F075FC00214DF20C30BD
:1049E00001F070FCA6214DF20D3001F06BFC0021AE
:1049F0004DF20E3001F066FCE5214DF20F3001F072
:104A000061FC01214DF2103001F05CFC13214DF2EC
:104A1000113001F057FC01214DF2123001F052FC2F
:104A200054214DF2133001F04DFC01214DF21430B0
:104A300001F048FC82214DF2153001F043FC0121C8
:104A40004DF2163001F03EFCCA214DF2173001F054
:104A500039FC02214DF2183001F034FC00214DF2F6
:104A6000193001F02FFC02214DF21A3001F02AFC1E
:104A700001214DF21B3001F025FC02214DF21C30CA
:104A800001F020FC34214DF21D3001F01BFC02210D
:104A90004DF21E3001F016FC67214DF21F3001F07F
:104AA00011FC02214DF2203001F00CFC84214DF26A
:104AB000213001F007FC02214DF2223001F002FC0E
:104AC000A4214DF2233001F0FDFB02214DF22430F0
:104AD00001F0F8FBB7214DF2253001F0F3FB022184
:104AE0004DF2263001F0EEFBCF214DF2273001F0E0
:104AF000E9FB02214DF2283001F0E4FBDE214DF20A
:104B0000293001F0DFFB02214DF22A3001F0DAFBFF
:104B1000F2214DF22B3001F0D5FB02214DF22C3069
:104B200001F0D0FBFE214DF22D3001F0CBFB032133
:104B30004DF22E3001F0C6FB10214DF22F3001F066
:104B4000C1FB03214DF2303001F0BCFB33214DF2AB
:104B5000313001F0B7FB03214DF2323001F0B2FBEE
:104B60006D214DF2333001F0ADFB00214FF4544084
:104B700001F0A8FB33214DF2014001F0A3FB00211D
:104B80004DF2024001F09EFB34214DF2034001F052
:104B900099FB00214DF2044001F094FB3A214DF2C3
:104BA000054001F08FFB00214DF2064001F08AFB29
:104BB0004A214DF2074001F085FB00214DF20840EB
:104BC00001F080FB5C214DF2094001F07BFB0021EC
:104BD0004DF20A4001F076FB81214DF20B4001F0CD
:104BE00071FB00214DF20C4001F06CFBA6214DF24F
:104BF0000D4001F067FB00214DF20E4001F062FB19
:104C0000E5214DF20F4001F05DFB01214DF2104016
:104C100001F058FB13214DF2114001F053FB01212B
:104C20004DF2124001F04EFB54214DF2134001F0C1
:104C300049FB01214DF2144001F044FB82214DF269
:104C4000154001F03FFB01214DF2164001F03AFB07
:104C5000CA214DF2174001F035FB02214DF21840F8
:104C600001F030FB00214DF2194001F02BFB022135
:104C70004DF21A4001F026FB01214DF21B4001F0DC
:104C800021FB02214DF21C4001F01CFB34214DF2AE
:104C90001D4001F017FB02214DF21E4001F012FBF6
:104CA00067214DF21F4001F00DFB02214DF2204023
:104CB00001F008FB84214DF2214001F003FB0221A9
:104CC0004DF2224001F0FEFAA4214DF2234001F002
:104CD000F9FA02214DF2244001F0F4FAB7214DF225
:104CE000254001F0EFFA02214DF2264001F0EAFAE8
:104CF000CF214DF2274001F0E5FA02214DF2284084
:104D000001F0E0FADE214DF2294001F0DBFA022148
:104D10004DF22A4001F0D6FAF2214DF22B4001F07B
:104D2000D1FA02214DF22C4001F0CCFAFE214DF2D5
:104D30002D4001F0C7FA03214DF22E4001F0C2FAD6
:104D400010214DF22F4001F0BDFA03214DF2304009
:104D500001F0B8FA33214DF2314001F0B3FA0321EA
:104D60004DF2324001F0AEFA6D214DF2334001F0C8
:104D7000A9FA00214FF4554001F0A4FA33214DF275
:104D8000015001F09FFA00214DF2025001F09AFA11
:104D900034214DF2035001F095FA00214DF20450F8
:104DA00001F090FA3A214DF2055001F08BFA002102
:104DB0004DF2065001F086FA4A214DF2075001F0FB
:104DC00081FA00214DF2085001F07CFA5C214DF28D
:104DD000095001F077FA00214DF20A5001F072FA01
:104DE00081214DF20B5001F06DFA00214DF20C5073
:104DF00001F068FAA6214DF20D5001F063FA00218E
:104E00004DF20E5001F05EFAE5214DF20F5001F027
:104E100059FA01214DF2105001F054FA13214DF2CC
:104E2000115001F04FFA01214DF2125001F04AFAEF
:104E300054214DF2135001F045FA01214DF2145066
:104E400001F040FA82214DF2155001F03BFA0121A8
:104E50004DF2165001F036FACA214DF2175001F00A
:104E600031FA02214DF2185001F02CFA00214DF2D6
:104E7000195001F027FA02214DF21A5001F022FADE
:104E800001214DF21B5001F01DFA02214DF21C5080
:104E900001F018FA34214DF21D5001F013FA0221ED
:104EA0004DF21E5001F00EFA67214DF21F5001F035
:104EB00009FA02214DF2205001F004FA84214DF24A
:104EC000215001F0FFF902214DF2225001F0FAF9D0
:104ED000A4214DF2235001F0F5F902214DF22450A6
:104EE00001F0F0F9B7214DF2255001F0EBF9022164
:104EF0004DF2265001F0E6F9CF214DF2275001F096
:104F0000E1F902214DF2285001F0DCF9DE214DF2E9
:104F1000295001F0D7F902214DF22A5001F0D2F9BF
:104F2000F2214DF22B5001F0CDF902214DF22C501F
:104F300001F0C8F9FE214DF22D5001F0C3F9032113
:104F40004DF22E5001F0BEF910214DF22F5001F01C
:104F5000B9F903214DF2305001F0B4F933214DF28B
:104F6000315001F0AFF903214DF2325001F0AAF9AE
:104F70006D214DF2335001F0A5F900214FF4564058
:104F800001F0A0F933214DF2016001F09BF90021FD
:104F90004DF2026001F096F934214DF2036001F008
:104FA00091F900214DF2046001F08CF93A214DF2A3
:104FB000056001F087F900214DF2066001F082F9E9
:104FC0004A214DF2076001F07DF900214DF20860A1
:104FD00001F078F95C214DF2096001F073F90021CC
:104FE0004DF20A6001F06EF981214DF20B6001F083
:104FF00069F900214DF20C6001F064F9A6214DF22F
:105000000D6001F05FF900214DF20E6001F05AF9D8
:10501000E5214DF20F6001F055F901214DF21060CC
:1050200001F050F913214DF2116001F04BF901210B
:105030004DF2126001F046F954214DF2136001F077
:1050400041F901214DF2146001F03CF982214DF249
:10505000156001F037F901214DF2166001F032F9C7
:10506000CA214DF2176001F02DF902214DF21860AE
:1050700001F028F900214DF2196001F023F9022115
:105080004DF21A6001F01EF901214DF21B6001F092
:1050900019F902214DF21C6001F014F934214DF28E
:1050A0001D6001F00FF902214DF21E6001F00AF9B6
:1050B00067214DF21F6001F005F902214DF22060D9
:1050C00001F000F984214DF2216001F0FBF802218A
:1050D0004DF2226001F0F6F8A4214DF2236001F0B8
:1050E000F1F802214DF2246001F0ECF8B7214DF205
:1050F000256001F0E7F802214DF2266001F0E2F8A8
:10510000CF214DF2276001F0DDF802214DF2286039
:1051100001F0D8F8DE214DF2296001F0D3F8022128
:105120004DF22A6001F0CEF8F2214DF22B6001F031
:10513000C9F802214DF22C6001F0C4F8FE214DF2B5
:105140002D6001F0BFF803214DF22E6001F0BAF896
:1051500010214DF22F6001F0B5F803214DF23060BF
:1051600001F0B0F833214DF2316001F0ABF80321CA
:105170004DF2326001F0A6F86D214DF2336001F07E
:10518000A1F855214FF4704001F09CF8AA214FF28C
:10519000010001F097F852214FF2020001F092F85D
:1051A00008214FF2030001F08DF800214FF20400B6
:1051B00001F088F8CC214FF4314001F083F8002150
:1051C0004BF2011001F07EF805214FF4364001F05A
:1051D00079F870214FF4374001F074F870214BF2E8
:1051E000017001F06FF801214FF4384001F06AF8C6
:1051F00003214BF6010001F065F803214BF6020094
:1052000001F060F803214BF6030001F05BF8022186
:105210004FF43C4001F056F800214BF6014001F0FC
:1052200051F800214BF6024001F04CF8D0214FF428
:10523000494001F047F802214CF6011001F042F814
:1052400050214CF6021001F03DF850214CF60310AD
:1052500001F038F850214CF6041001F033F8002129
:105260004FF4545001F02EF855214FF4685001F0DE
:1052700029F84FF4885001F00FF87820FDF7FEFB75
:105280004FF4245001F008F810BD10B5E22001F0F1
:1052900003F81D2000F0F4FF022000F0F1FF0420CD
:1052A00000F0EEFF6420FDF7E9FBE02000F0F4FFE2
:1052B000012000F0E5FF0A20FDF7D4FBE02000F01C
:1052C000EBFF032000F0DCFF0C20FDF7CBFB0120FF
:1052D00000F0E2FF0A20FDF7C5FBE62000F0DCFF4E
:1052E0002F2000F0CDFFFF2000F0CAFFFF2000F0CC
:1052F000C7FFB02000F0D0FF202000F0C1FF002049
:1053000000F0BEFF032000F0BBFF40F21F3000F0B2
:10531000B7FF012000F0B4FF40F2DF1000F0B0FF53
:10532000002000F0ADFFB42000F0B6FF042000F034
:10533000A7FF40F21F4000F0A3FF002000F0A0FFF5
:105340002E2000F09DFF002000F09AFF002000F0CA
:1053500097FF002000F094FF002000F091FFB6209E
:1053600000F09AFF022000F08BFF4FF4037000F072
:1053700087FF002000F084FF172000F081FF152038
:1053800000F07EFF002000F07BFF002000F078FF9F
:10539000F02000F081FF032000F072FF292000F0D0
:1053A0007BFFD02000F078FF002000F069FFBE20D6
:1053B00000F072FF052000F063FFFE2000F060FFA8
:1053C000012000F05DFF002000F05AFF002000F0F7
:1053D00057FF002000F054FFB82000F05DFF0320CD
:1053E00000F04EFF012000F04BFFBA2000F054FF08
:1053F000012000F045FF10BD10B5112000F04CFF5A
:105400007820FDF72FFB362000F046FF002000F04B
:1054100037FF3A2000F040FF052000F031FFB220B6
:1054200000F03AFF0C2000F02BFF0C2000F028FFCA
:10543000002000F025FF332000F022FF332000F091
:105440001FFFB72000F028FF352000F019FFBB2018
:1054500000F022FF322000F013FFC02000F01CFFFC
:105460000C2000F00DFFC22000F016FF012000F01C
:1054700007FFC32000F010FF102000F001FFC42040
:1054800000F00AFF202000F0FBFEC62000F004FF21
:105490000F2000F0F5FED02000F0FEFEA42000F06A
:1054A000EFFEA12000F0ECFEE02000F0F5FED020A1
:1054B00000F0E6FE002000F0E3FE022000F0E0FE37
:1054C000072000F0DDFE0A2000F0DAFE282000F0C0
:1054D000D7FE322000F0D4FE442000F0D1FE42205E
:1054E00000F0CEFE062000F0CBFE0E2000F0C8FE3D
:1054F000122000F0C5FE142000F0C2FE172000F0BC
:10550000BFFEE12000F0C8FED02000F0B9FE002070
:1055100000F0B6FE022000F0B3FE072000F0B0FE5F
:105520000A2000F0ADFE282000F0AAFE312000F095
:10553000A7FE542000F0A4FE472000F0A1FE0E209C
:1055400000F09EFE1C2000F09BFE172000F098FE4D
:105550001B2000F095FE1E2000F092FE2A2000F095
:105560009BFE002000F08CFE002000F089FE002051
:1055700000F086FEEF2000F083FE2B2000F08CFE72
:10558000002000F07DFE002000F07AFE012000F0F7
:1055900077FE3F2000F074FE292000F07DFE10BD54
:1055A00010B5112000F078FE7820FDF75BFA362068
:1055B00000F072FE482000F063FE3A2000F06CFE1E
:1055C000552000F05DFEF02000F066FEC32000F0E4
:1055D00057FEF02000F060FE962000F051FEB4204F
:1055E00000F05AFE012000F04BFEB62000F054FE01
:1055F0000A2000F045FEA22000F042FEB72000F095
:105600004BFEC62000F03CFEB92000F045FE022013
:1056100000F036FEE02000F033FEC02000F03CFE3B
:10562000802000F02DFE162000F02AFEC12000F0A0
:1056300033FE192000F024FEC22000F02DFEA7202A
:1056400000F01EFEC52000F027FE162000F018FE18
:10565000E82000F021FE402000F012FE8A2000F039
:105660000FFE002000F00CFE002000F009FE2920B3
:1056700000F006FE192000F003FEA52000F000FE59
:10568000332000F0FDFDE02000F006FEF02000F0E9
:10569000F7FD072000F0F4FD0D2000F0F1FD0420DF
:1056A00000F0EEFD052000F0EBFD142000F0E8FD19
:1056B000362000F0E5FD542000F0E2FD4C2000F023
:1056C000DFFD382000F0DCFD132000F0D9FD1420B0
:1056D00000F0D6FD2E2000F0D3FD342000F0D0FDE8
:1056E000E12000F0D9FDF02000F0CAFD102000F00C
:1056F000C7FD142000F0C4FD0E2000F0C1FD0C20F9
:1057000000F0BEFD082000F0BBFD352000F0B8FD24
:10571000442000F0B5FD4C2000F0B2FD262000F042
:10572000AFFD102000F0ACFD122000F0A9FD2C20F0
:1057300000F0A6FD322000F0A3FDF02000F0ACFD4B
:105740003C2000F09DFDF02000F0A6FD692000F057
:1057500097FD7820FDF786F9212000F09DFD292096
:1057600000F09AFD10BD00002DE9F04F05460E46F1
:1057700017469846DDF824A04FF0000B781B401C1C
:105780001FFA80FB344613E02146284600F086FBD2
:1057900000F08EFD4FF0000906E00749A1F800A0D7
:1057A00009F101001FFA80F9D945F6DB601C84B2CB
:1057B0004445E9DDBDE8F08F0008006C00B593B00A
:1057C00000BF00BFF948806940F48070F7498861E4
:1057D0000846806900F48070009000BF00BF00BFE1
:1057E00000BF00BF0846806940F02000886108467D
:1057F000806900F02000009000BF00BF00BF00BF24
:1058000000BF0846806940F0200088610846806932
:1058100000F02000009000BF00BF00BF00BF00BF2D
:105820000846806940F4807088610846806900F409
:105830008070009000BF00BF00BF00BF00BF0846DF
:10584000806940F0080088610846806900F008001F
:10585000009000BF00BF00BF88140F90022010907E
:1058600001201190032012900FA9D148FBF7CCFC26
:1058700020200F900FA9CF48FBF7C6FC10200F90F7
:105880000FA9CC48FBF7C0FC01200F900FA9C84816
:10589000FBF7BAFC01200F9010900FA9C648FBF748
:1058A000B3FC4FF02040C5490860C5484860062059
:1058B00088600021C148C1601021416100218161DF
:1058C000C16141624FF4805181620021C1624FF495
:1058D00080410163002141638163002008900990A9
:1058E0000F200A9000200E9001900290012003905A
:1058F0000020079001AA08A9B048FCF787FB3220D6
:10590000FDF7B0F8D32000F0C7FC00F09DF9AD49D9
:10591000888000F099F9AB49888000F095F9A94991
:105920008880084680884FF6FF7101EA0020A5496B
:10593000888000F089F9A34989880843A1498880B3
:105940000846808849F2413188427CD0042000F02A
:10595000A3FC00F079F99B49888000F075F999491A
:10596000888000F071F997498880084680884FF652
:10597000FF7101EA00209349888000F065F99149A0
:10598000898808438F4988800846808848F25251A8
:10599000884203D147F289708A4988808948808883
:1059A00047F289718842D0D0D42000F075FC00F015
:1059B0004BF98449888000F047F98249888000F0DB
:1059C00043F980498880084680884FF6FF7101EAD4
:1059D00000207C49888000F037F97A49898808439B
:1059E000784988800846808845F210318842ACD0DA
:1059F000D32000F051FC00F027F97249888000F0B4
:105A000023F97049888000F01FF96E4988800846A4
:105A100080884FF6FF7101EA00206A49888000F013
:105A200013F9684989880843664988800846808850
:105A300047F29671884288D055214FF4704000F0AB
:105A400041FCAA2100E07EE04FF2010000F03AFCA8
:105A500052214FF2020000F035FC08214FF2030002
:105A600000F030FC01214FF2040000F02BFC4FF459
:105A7000454000F011FC00F0E7F8524988800846E4
:105A800080884FF6FF7101EA00204E4988804CF271
:105A9000015000F001FC00F0D7F84A49898808431A
:105AA000484988800520FCF7DDFF4648808845F29C
:105AB0001051884247D0D32000F0EEFB00F0C4F82C
:105AC0004049888000F0C0F83E49888000F0BCF86A
:105AD0003C498880084680884FF6FF7101EA002023
